:020000040800F2
:1000000000500020A9010008F1010008F1010008DA
:10001000F1010008F1010008F101000800000000F2
:10002000000000000000000000000000F1010008D6
:10003000F101000800000000F1010008750300084C
:10004000F1010008F1010008F1010008F1010008C8
:10005000F1010008F1010008F1010008F1010008B8
:10006000F1010008F1010008F1010008F1010008A8
:10007000F1010008F1010008F1010008F101000898
:10008000F1010008F1010008F1010008F101000888
:10009000F1010008F1010008F1010008F101000878
:1000A000F1010008F1010008F1010008F101000868
:1000B000F1010008F101000899030008F1010008AE
:1000C000F1010008F1010008F1010008F101000848
:1000D000F101000885030008F1010008F1010008A2
:1000E000F1010008F1010008F10100080000000022
:1000F0000000000000000000000000000000000000
:0C01000000000000000000005FF808F1A3
:10010C00034613F8012B002AFBD1181A013870474B
:10011C000348044B834202D0034B03B1184770478A
:10012C007000002070000020000000000548064907
:10013C00091A891001EBD171491002D0034B03B19C
:10014C00184770477000002070000020000000006D
:10015C0010B5064C237843B9FFF7DAFF044B13B103
:10016C000448AFF300800123237010BD7000002001
:10017C00000000006C2F000808B5054B1BB10549A9
:10018C000548AFF30080BDE80840FFF7CFBF00BFC4
:10019C0000000000740000206C2F0008002103E018
:1001AC000B4B5B58435004310A480B4B42189A4294
:1001BC00F6D30A4A02E0002342F8043B084B9A4269
:1001CC00F9D300F081FB02F077FA00F0E9F8704700
:1001DC00F42F0008000000207000002070000020A8
:1001EC00A4030020FEE780B483B000AF78600B4618
:1001FC00FB701346BB70FB787A681344BA789A7319
:10020C0000BF0C37BD4680BC7047000080B582B083
:10021C0000AF7860284B1B78012B1AD0022B2FD003
:10022C00002B44D17B681B681B6841F27072DA6248
:10023C007B681B6841F27072DA607B6898687B6837
:10024C009B890122194600F0DBFE1B4B01221A7020
:10025C002EE07B681B681B684FF49662DA627B6841
:10026C001B684FF49662DA607B6898687B689B89A0
:10027C000022194600F0C4FE0F4B02221A7017E040
:10028C000D4B00221A707B681B68184601F03AFB74
:10029C000A4B01221A707B6898687B689B89012243
:1002AC00194600F0ADFE786800F00AF800E000BFD7
:1002BC0000BF0837BD4680BD8C0000208D0000209B
:1002CC0080B582B000AF7860234B1B78002B17D021
:1002DC00224B1B68214A43F0006313601F4B1B68C1
:1002EC001E4A43F0807313607B6858687B680E333A
:1002FC0040F20122194601F043FE174B00221A70FE
:10030C00154B1B78002B23D1154B1B68002B1FD1D1
:10031C007B685B6893F83930DBB2212B18D07B6893
:10032C009B891A460F4B1A600E4B01225A600D4BDB
:10033C0000229A600B4B0122DA607B689B680949AA
:10034C00184600F003FD7B681B68184601F0B7FAED
:10035C0000BF0837BD4680BD8D000020000C014059
:10036C00000800408003002080B500AF00F06CFC5A
:10037C0000F024FB00BF80BD80B500AF024801F047
:10038C0043FE00BF80BD00BF9000002080B500AFD1
:10039C00024801F078FB00BF80BD00BFD0000020F8
:1003AC0080B500AF00F0C4FA00F07AF800F026F83F
:1003BC0000F0B0F800F0DAF80A4B0B4A5A60094B1F
:1003CC000A4A1A60074B0A4A9A60064B40229A81E5
:1003DC00FF2201210348FFF706FF0248FFF770FFD9
:1003EC00FEE700BF5001002090000020D00000204C
:1003FC00000C014080B400AFFEE7000080B590B067
:10040C0000AF07F1180328220021184602F078F9F2
:10041C000123BB614FF48033FB6102237B634FF4F8
:10042C008033BB634FF48013FB6307F1180318464A
:10043C0000F0FEFD0346002B01D0FFF7DBFF3B1D58
:10044C0000221A605A609A60DA601A610F237B608E
:10045C000223BB600023FB604FF4C0633B614FF48D
:10046C00C0637B613B1D0121184601F061F8034616
:10047C00002B01D0FFF7BEFF01F0A6F90246074B97
:10048C00A3FB02239B09184600F0B5FB042000F0E7
:10049C00BFFB00BF4037BD4680BD00BFD34D6210CF
:1004AC0080B586B000AF194B9B69184A43F0200306
:1004BC009361164B9B6903F020037B607B68134BA5
:1004CC009B69124A43F010039361104B9B6903F034
:1004DC0010033B603B6807F1080300221A605A6066
:1004EC009A60DA604FF40053BB600123FB60002379
:1004FC003B6102237B6107F108031946044800F0B5
:10050C0025FC00BF1837BD4680BD00BF001002405F
:10051C000010014080B500AF114B124A1A60104B0D
:10052C00114A5A600E4B00229A600D4B4FF4005248
:10053C00DA600B4B00221A61094B08225A61084BF6
:10054C0000229A61064B0022DA61054801F032FC68
:10055C000346002B01D0FFF74DFF00BF80BD00BF4D
:10056C00900000200038014090D0030080B58AB084
:10057C0000AF214B214A1A601F4B00225A601E4BC0
:10058C0000229A601C4B4FF6FE72DA601A4801F09A
:10059C006BF90346002B01D0FFF72CFF184B194ABF
:1005AC001A60174B00225A60154B00229A60144BAC
:1005BC004FF40062DA6003237B600A23BB600123E3
:1005CC00FB6000233B610F237B610A23BB6101238A
:1005DC00FB6100233B620F237B623B1D19460848DD
:1005EC0001F0BAF90346002B01D0FFF703FF00BF5F
:1005FC002837BD4680BD00BFD00000200008004059
:10060C00100100200004004080B582B000AF78607B
:10061C007B681A68054B1B681B689A4202D1034819
:10062C00FFF7F4FD00BF0837BD4680BD5001002028
:10063C0080B582B000AF78607B681A68054B5B6848
:10064C001B689A4202D10348FFF73AFE00BF0837F5
:10065C00BD4680BD5001002080B582B000AF7860EF
:10066C007B681B680D4A934213D10C4B5B6A9B0849
:10067C0001331A460A490B4802F04AF80948FFF7B9
:10068C003FFD03469AB24FF0FF330649064801F08E
:10069C00DEFB00BF0837BD4680BD00BF0004004034
:1006AC00842F0008600300209000002080B582B0E9
:1006BC0000AF032000F06AFA134B5B6A124A43F452
:1006CC00E0235362002200216FF00B0000F069FA66
:1006DC00002200216FF00A0000F063FA00220021D2
:1006EC006FF0090000F05DFA084B9B69074A43F074
:1006FC0001039361054B9B6903F001037B607B68ED
:10070C0000BF0837BD4680BD00ED00E00010024080
:10071C0080B58AB000AF78607B681A68214B1B6883
:10072C009A423BD1204B9B691F4A43F4804393610F
:10073C001D4B9B6903F480433B613B691A4B9B69DE
:10074C00194A43F008039361174B9B6903F00803A4
:10075C00FB60FB6840237B610223BB610023FB61D0
:10076C0001233B6207F114031946104800F0EEFA1E
:10077C000F4B5B687B627B6A43F0E0637B627B6A56
:10078C0043F004037B620A4A7B6A5360252000F025
:10079C0024FA00220F21252000F003FA00BF28378D
:1007AC00BD4680BD9000002000100240000C0140AE
:1007BC000000014080B58AB000AF78607B681A6891
:1007CC00274B1B689A4213D1264BDB69254A43F011
:1007DC000403D361234BDB6903F004037B627B6A64
:1007EC001E2000F0FAF900220E211E2000F0D9F98B
:1007FC007B681A681C4B1B689A422DD1194BDB691C
:10080C00184A43F00203D361164BDB6903F0020371
:10081C003B613B69134B9B69124A43F004039361A0
:10082C00104B9B6903F00403FB60FB680023BB6166
:10083C00C0237B610223FB6102233B6207F114039B
:10084C0019460A4800F082FA1D2000F0C6F9002271
:10085C000F211D2000F0A5F900BF2837BD4680BD33
:10086C00D0000020001002401001002000080140C0
:10087C0080B584B000AF7860114B1B68002B02D19F
:10088C000F4B104A1A600E4B1B68FB600C4B1A681E
:10089C007B6813446A46934207D901F007FF02466E
:1008AC000C2313604FF0FF3306E0054B1A687B688E
:1008BC001344034A1360FB6818461037BD4680BDCD
:1008CC0074030020A803002080B400AF154B1B68F4
:1008DC00144A43F001031360124B5A681149124B2E
:1008EC0013404B600F4B1B680E4A23F0847323F4A8
:1008FC00803313600B4B1B680A4A23F4802313606C
:10090C00084B5B68074A23F4FE035360054B4FF416
:10091C001F029A60054B4FF000629A6000BFBD4603
:10092C0080BC7047001002400000FFF800ED00E0B2
:10093C0080B500AF084B1B68074A43F010031360E7
:10094C00032000F023F9002000F008F8FFF7AEFEBA
:10095C000023184680BD00BF0020024080B582B045
:10096C0000AF7860124B1A68124B1B7819464FF483
:10097C007A73B3FBF1F3B2FBF3F3184600F03BF9D7
:10098C000346002B01D001230EE07B680F2B0AD805
:10099C00002279684FF0FF3000F003F9064A7B68BB
:1009AC001360002300E0012318460837BD4680BDC4
:1009BC0000000020080000200400002080B400AFDC
:1009CC00054B1B781A46054B1B681344034A1360EE
:1009DC0000BFBD4680BC704708000020900300207B
:1009EC0080B400AF024B1B681846BD4680BC7047F4
:1009FC009003002080B485B000AF78607B6803F072
:100A0C000703FB600C4BDB68BB60BA684FF6FF0357
:100A1C001340BB60FB681A02BB68134343F0BF630F
:100A2C0043F40033BB60044ABB68D36000BF143787
:100A3C00BD4680BC704700BF00ED00E080B400AF45
:100A4C00044BDB681B0A03F007031846BD4680BC49
:100A5C00704700BF00ED00E080B483B000AF0346E8
:100A6C00FB7197F90730002B0BDBFB7903F01F02AE
:100A7C00064997F907305B09012000FA02F241F8A8
:100A8C00232000BF0C37BD4680BC704700E100E05E
:100A9C0080B483B000AF03463960FB7197F907301F
:100AAC00002B0ADB3B68DAB20C4997F907301201CC
:100ABC00D2B20B4483F800230AE03B68DAB208494F
:100ACC00FB7903F00F03043B1201D2B20B441A76EC
:100ADC0000BF0C37BD4680BC704700BF00E100E092
:100AEC0000ED00E080B489B000AFF860B9607A60C6
:100AFC00FB6803F00703FB61FB69C3F10703042BDD
:100B0C0028BF0423BB61FB690433062B02D9FB69A4
:100B1C00033B00E000237B614FF0FF32BB6902FA1C
:100B2C0003F3DA43BB681A407B699A404FF0FF31FC
:100B3C007B6901FA03F3D9437B680B4013431846D6
:100B4C002437BD4680BC704780B582B000AF78605A
:100B5C007B68013BB3F1807F01D301230FE00A4A8C
:100B6C007B68013B53600F214FF0FF30FFF790FF84
:100B7C00054B00229A60044B07221A60002318468A
:100B8C000837BD4680BD00BF10E000E080B582B0E4
:100B9C0000AF78607868FFF72DFF00BF0837BD46BF
:100BAC0080BD80B586B000AF0346B9607A60FB7338
:100BBC0000237B61FFF742FF78617A68B968786936
:100BCC00FFF790FF024697F90F3011461846FFF7D2
:100BDC005FFF00BF1837BD4680BD80B582B000AF47
:100BEC000346FB7197F907301846FFF735FF00BF36
:100BFC000837BD4680BD80B582B000AF786078689C
:100C0C00FFF7A2FF034618460837BD4680BD00001B
:100C1C0080B483B000AF78607B68042B06D1094B9D
:100C2C001B68084A43F00403136005E0054B1B687E
:100C3C00044A23F00403136000BF0C37BD4680BC8C
:100C4C00704700BF10E000E080B500AF00F002F884
:100C5C0000BF80BD80B400AF00BFBD4680BC7047F4
:100C6C0080B584B000AF78600023FB737B6893F889
:100C7C002130022B05D07B6804229A630123FB737D
:100C8C0051E07B681B681A687B681B6822F00E02B7
:100C9C001A607B681B681A687B681B6822F001026B
:100CAC001A607B681B68224A934229D07B681B68B8
:100CBC00204A934222D07B681B681F4A93421AD069
:100CCC007B681B681D4A934212D07B681B681C4AC8
:100CDC0093420AD07B681B681A4A934202D14FF4A4
:100CEC0080130EE04FF080730BE04FF4803308E07C
:100CFC004FF4805305E04FF4807302E0102300E0C2
:100D0C000123114A53607B68012283F821207B6800
:100D1C00002283F820207B685B6B002B03D07B6860
:100D2C005B6B78689847FB7B18461037BD4680BDD7
:100D3C00080002401C000240300002404400024007
:100D4C00580002406C0002400000024080B48BB09E
:100D5C0000AF7860396000237B6200233B6227E19F
:100D6C0001227B6A02FA03F3FB613B681B68FA6998
:100D7C001340BB61BA69FB699A4240F016813B682B
:100D8C005B68122B34D0122B0DD8022B2BD0022BDC
:100D9C0004D8002B31D0012B1CD048E0032B43D0BE
:100DAC00112B1BD043E0894A934226D0874A9342A9
:100DBC0006D8874A934220D0864A93421DD036E00B
:100DCC00854A934219D0854A934216D0844A93425D
:100DDC0013D02CE03B68DB683B6228E03B68DB68A7
:100DEC0004333B6223E03B68DB6808333B621EE064
:100DFC003B68DB680C333B6219E03B689B68002B5B
:100E0C0002D104233B6212E03B689B68012B05D1A5
:100E1C0008233B627B68FA691A6108E008233B628D
:100E2C007B68FA695A6102E000233B6200BFBB6930
:100E3C00FF2B01D87B6801E07B6804337B61BB69C5
:100E4C00FF2B02D87B6A9B0002E07B6A083B9B006D
:100E5C003B617B691A680F213B6901FA03F3DB43A1
:100E6C001A40396A3B6901FA03F31A437B691A6029
:100E7C003B685B6803F08053002B00F09680594B65
:100E8C009B69584A43F001039361564B9B6903F0ED
:100E9C000103BB60BB68544A7B6A9B08023352F85F
:100EAC002330FB607B6A03F003039B000F2202FAE2
:100EBC0003F3DB43FA681340FB607B684B4A9342B5
:100ECC0013D07B684A4A93420DD07B68494A9342BF
:100EDC0007D07B68484A934201D1032306E00423E0
:100EEC0004E0022302E0012300E000237A6A02F00E
:100EFC00030292009340FA681343FB603A497B6A01
:100F0C009B080233FA6841F823203B685B6803F4C2
:100F1C008033002B06D0394B1A683849BB69134310
:100F2C000B6006E0354B1A68BB69DB433349134051
:100F3C000B603B685B6803F40033002B06D02F4B2F
:100F4C005A682E49BB6913434B6006E02B4B5A6819
:100F5C00BB69DB43294913404B603B685B6803F476
:100F6C008013002B06D0254B9A682449BB69134388
:100F7C008B6006E0214B9A68BB69DB431F49134029
:100F8C008B603B685B6803F40013002B06D01B4B93
:100F9C00DA681A49BB691343CB6006E0174BDA6871
:100FAC00BB69DB4315491340CB607B6A01337B6221
:100FBC003B681A687B6A22FA03F3002B7FF4D0AEED
:100FCC0000BF2C37BD4680BC704700BF000021100D
:100FDC00000011100000121000003110000032103F
:100FEC0000002210001002400000014000080140E7
:100FFC00000C0140001001400014014000040140AD
:10100C0080B483B000AF78600B467B8013467B7056
:10101C007B78002B03D07A887B681A6103E07B888D
:10102C001A047B681A6100BF0C37BD4680BC704740
:10103C0080B586B000AF78607B68002B01D10123AE
:10104C006CE27B681B6803F00103002B00F08780C7
:10105C00924B5B6803F00C03042B0CD08F4B5B683A
:10106C0003F00C03082B12D18C4B5B6803F4803318
:10107C00B3F5803F0BD1894B1B6803F40033002B75
:10108C006CD07B685B68002B68D1012346E27B68DF
:10109C005B68B3F5803F06D1804B1B687F4A43F4F5
:1010AC00803313602EE07B685B68002B0CD17B4B8C
:1010BC001B687A4A23F480331360784B1B68774A99
:1010CC0023F4802313601DE07B685B68B3F5A02FCD
:1010DC000CD1724B1B68714A43F4802313606F4B25
:1010EC001B686E4A43F4803313600BE06B4B1B6838
:1010FC006A4A23F480331360684B1B68674A23F4F5
:10110C00802313607B685B68002B13D0FFF768FCAF
:10111C00386108E0FFF764FC02463B69D31A642B84
:10112C0001D90323FAE15D4B1B6803F40033002B58
:10113C00F0D014E0FFF754FC386108E0FFF750FCE6
:10114C0002463B69D31A642B01D90323E6E1534BC6
:10115C001B6803F40033002BF0D100E000BF7B6868
:10116C001B6803F00203002B63D04C4B5B6803F04D
:10117C000C03002B0BD0494B5B6803F00C03082BC2
:10118C001CD1464B5B6803F48033002B16D1434BC8
:10119C001B6803F00203002B05D07B681B69012B35
:1011AC0001D00123BAE13D4B1B6823F0F8027B68A8
:1011BC005B69DB00394913430B603AE07B681B69C0
:1011CC00002B20D0364B01221A60FFF709FC386146
:1011DC0008E0FFF705FC02463B69D31A022B01D944
:1011EC0003239BE12D4B1B6803F00203002BF0D073
:1011FC002A4B1B6823F0F8027B685B69DB002749EC
:10120C0013430B6015E0264B00221A60FFF7E8FB36
:10121C00386108E0FFF7E4FB02463B69D31A022B66
:10122C0001D903237AE11D4B1B6803F00203002B49
:10123C00F0D17B681B6803F00803002B3AD07B6865
:10124C009B69002B19D0174B01221A60FFF7C8FBC2
:10125C00386108E0FFF7C4FB02463B69D31A022B46
:10126C0001D903235AE10D4B5B6A03F00203002BF7
:10127C00F0D0012000F0DAFA1CE00A4B00221A60D0
:10128C00FFF7AEFB38610FE0FFF7AAFB02463B69A4
:10129C00D31A022B08D9032340E100BF00100240EF
:1012AC0000004242800442429E4B5B6A03F0020300
:1012BC00002BE9D17B681B6803F00403002B00F0C2
:1012CC00A6800023FB75974BDB6903F08053002B42
:1012DC000DD1944BDB69934A43F08053D361914B0E
:1012EC00DB6903F08053BB60BB680123FB758E4B3D
:1012FC001B6803F48073002B18D18B4B1B688A4A34
:10130C0043F480731360FFF76BFB386108E0FFF761
:10131C0067FB02463B69D31A642B01D90323FDE01A
:10132C00814B1B6803F48073002BF0D07B68DB6867
:10133C00012B06D17B4B1B6A7A4A43F001031362E3
:10134C002DE07B68DB68002B0CD1764B1B6A754A51
:10135C0023F001031362734B1B6A724A23F00403DC
:10136C0013621CE07B68DB68052B0CD16D4B1B6A90
:10137C006C4A43F0040313626A4B1B6A694A43F0DC
:10138C00010313620BE0674B1B6A664A23F00103EF
:10139C001362644B1B6A634A23F0040313627B6879
:1013AC00DB68002B15D0FFF71BFB38610AE0FFF759
:1013BC0017FB02463B69D31A41F28832934201D99A
:1013CC000323ABE0574B1B6A03F00203002BEED058
:1013DC0014E0FFF705FB38610AE0FFF701FB02465A
:1013EC003B69D31A41F28832934201D9032395E029
:1013FC004C4B1B6A03F00203002BEED1FB7D012B3F
:10140C0005D1484BDB69474A23F08053D3617B6895
:10141C00DB69002B00F08180424B5B6803F00C030E
:10142C00082B61D07B68DB69022B46D13F4B002235
:10143C001A60FFF7D5FA386108E0FFF7D1FA0246D7
:10144C003B69D31A022B01D9032367E0354B1B6888
:10145C0003F00073002BF0D17B681B6AB3F5803F5F
:10146C0008D1304B5B6823F400327B689B682D49B4
:10147C0013434B602B4B5B6823F474127B68196A23
:10148C007B685B6A0B43274913434B60274B012254
:10149C001A60FFF7A5FA386108E0FFF7A1FA0246D7
:1014AC003B69D31A022B01D9032337E01D4B1B6870
:1014BC0003F00073002BF0D02FE01C4B00221A60BD
:1014CC00FFF78EFA386108E0FFF78AFA02463B69AB
:1014DC00D31A022B01D9032320E0124B1B6803F013
:1014EC000073002BF0D118E07B68DB69012B01D174
:1014FC00012313E00B4B5B68FB60FB6803F4803249
:10150C007B681B6A9A4206D1FB6803F470127B68F5
:10151C005B6A9A4201D0012300E000231846183779
:10152C00BD4680BD00100240007000406000424289
:10153C0080B584B000AF786039607B68002B01D136
:10154C000123D0E06A4B1B6803F007033A689A4208
:10155C0010D9674B1B6823F0070265493B6813439E
:10156C000B60634B1B6803F007033A689A4201D087
:10157C000123B8E07B681B6803F00203002B20D02A
:10158C007B681B6803F00403002B05D0594B5B6888
:10159C00584A43F4E06353607B681B6803F008030C
:1015AC00002B05D0534B5B68524A43F46053536095
:1015BC00504B5B6823F0F0027B689B684D491343EA
:1015CC004B607B681B6803F00103002B40D07B68E9
:1015DC005B68012B07D1474B1B6803F40033002BCE
:1015EC0015D101237FE07B685B68022B07D1414B4F
:1015FC001B6803F00073002B09D1012373E03D4BF2
:10160C001B6803F00203002B01D101236BE0394B63
:10161C005B6823F003027B685B68364913434B60BD
:10162C00FFF7DEF9F8600AE0FFF7DAF90246FB682B
:10163C00D31A41F28832934201D9032353E02D4B44
:10164C005B6803F00C027B685B689B009A42EBD1F1
:10165C00274B1B6803F007033A689A4210D2244BBD
:10166C001B6823F0070222493B6813430B60204B95
:10167C001B6803F007033A689A4201D0012332E059
:10168C007B681B6803F00403002B08D0194B5B68C4
:10169C0023F4E0627B68DB68164913434B607B687C
:1016AC001B6803F00803002B09D0124B5B6823F472
:1016BC0060527B681B69DB000E4913434B6000F0E2
:1016CC0021F801460B4B5B681B0903F00F030A4A18
:1016DC00D35C21FA03F3094A1360094B1B681846C3
:1016EC00FFF73CF9002318461037BD4680BD00BFFC
:1016FC000020024000100240A02F00080000002033
:10170C000400002090B48AB000AF2A4B3C1D0FCBD4
:10171C0084E80F00284B1B883B800023FB610023CF
:10172C00BB6100237B6200237B6100233B62234B64
:10173C005B68FB61FB6903F00C03042B02D0082BE4
:10174C0003D02DE01E4B3B622DE0FB699B0C03F09C
:10175C000F0307F12802134413F8243C7B61FB6947
:10176C0003F48033002B13D0144B5B685B0C03F039
:10177C00010307F12802134413F8283CBB617B6971
:10178C000F4A02FB03F2BB69B2FBF3F37B6204E08A
:10179C007B690C4A02FB03F37B627B6A3B6202E0CF
:1017AC00074B3B6200BF3B6A18462837BD4690BCCE
:1017BC00704700BF8C2F00089C2F000800100240BF
:1017CC0000127A0000093D0080B400AF024B1B6888
:1017DC001846BD4680BC70470000002080B500AFA5
:1017EC00FFF7F2FF0146054B5B681B0A03F007038A
:1017FC00034AD35C21FA03F3184680BD0010024063
:10180C00B02F000880B500AFFFF7DEFF0146054B97
:10181C005B68DB0A03F00703034AD35C21FA03F38A
:10182C00184680BD00100240B02F000880B485B06F
:10183C0000AF78600A4B1B680A4AA2FB03235B0AC1
:10184C007A6802FB03F3FB6000BFFB685A1EFA6068
:10185C00002BF9D100BF1437BD4680BC704700BFC8
:10186C0000000020D34D621080B582B000AF7860CC
:10187C007B68002B01D101231DE07B6893F83D3080
:10188C00DBB2002B06D17B68002283F83C20786801
:10189C00FEF790FF7B68022283F83D207B681A6874
:1018AC007B6804331946104600F010FA7B6801225D
:1018BC0083F83D20002318460837BD4680BD80B410
:1018CC0085B000AF78607B681B68DA687B681B6842
:1018DC0042F00102DA607B681B689B6803F0070327
:1018EC00FB60FB68062B07D07B681B681A687B685B
:1018FC001B6842F001021A60002318461437BD46DB
:10190C0080BC704780B483B000AF78607B681B6884
:10191C00DA687B681B6822F00102DA607B681B685E
:10192C001A6A41F211131340002B0FD17B681B680C
:10193C001A6A40F244431340002B07D17B681B68A2
:10194C001A687B681B6822F001021A600023184693
:10195C000C37BD4680BC704780B586B000AF786050
:10196C0039607B68002B01D101237FE07B6893F801
:10197C003D30DBB2002B06D17B68002283F83C2083
:10198C00786800F077F87B68022283F83D207B684A
:10199C001B689B687A68126823F4804323F0070362
:1019AC0093607B681A687B6804331946104600F014
:1019BC008DF97B681B689B687B617B681B689B69E6
:1019CC003B617B681B681B6AFB603B681B687A6920
:1019DC0013437B613B6923F4407323F003033B61A6
:1019EC003B689A683B689B691B0213433A69134333
:1019FC003B613B6923F4406323F00C033B613B697F
:101A0C0023F4704323F0F0033B613B68DA683B68D6
:101A1C00DB691B0213433A6913433B613B681B6947
:101A2C001A013B681B6A1B0313433A6913433B615E
:101A3C00FB6823F02203FB603B685A683B685B69D8
:101A4C001B011343FA681343FB607B681B687A69BC
:101A5C009A607B681B683A699A617B681B68FA68B4
:101A6C001A627B68012283F83D2000231846183740
:101A7C00BD4680BD80B483B000AF786000BF0C372A
:101A8C00BD4680BC704780B582B000AF78607B6883
:101A9C001B681B6903F00203022B22D17B681B68B5
:101AAC00DB6803F00203022B1BD17B681B686FF011
:101ABC0002021A617B6801221A777B681B689B699A
:101ACC0003F00303002B03D07868FEF7C5FD05E097
:101ADC00786800F0E0F8786800F0E6F87B6800229F
:101AEC001A777B681B681B6903F00403042B22D153
:101AFC007B681B68DB6803F00403042B1BD17B6839
:101B0C001B686FF004021A617B6802221A777B68EB
:101B1C001B689B6903F44073002B03D07868FEF7B5
:101B2C009BFD05E0786800F0B6F8786800F0BCF82A
:101B3C007B6800221A777B681B681B6903F008031B
:101B4C00082B22D17B681B68DB6803F00803082B89
:101B5C001BD17B681B686FF008021A617B6804223A
:101B6C001A777B681B68DB6903F00303002B03D037
:101B7C007868FEF771FD05E0786800F08CF87868FD
:101B8C0000F092F87B6800221A777B681B681B694F
:101B9C0003F01003102B22D17B681B68DB6803F069
:101BAC001003102B1BD17B681B686FF010021A619D
:101BBC007B6808221A777B681B68DB6903F4407327
:101BCC00002B03D07868FEF747FD05E0786800F03D
:101BDC0062F8786800F068F87B6800221A777B68F6
:101BEC001B681B6903F00103012B0ED17B681B687A
:101BFC00DB6803F00103012B07D17B681B686FF0D6
:101C0C0001021A617868FEF7FFFC7B681B681B6990
:101C1C0003F08003802B0ED17B681B68DB6803F01C
:101C2C008003802B07D17B681B686FF080021A61E0
:101C3C00786800F0B6F87B681B681B6903F04003FA
:101C4C00402B0ED17B681B68DB6803F04003402BF4
:101C5C0007D17B681B686FF040021A61786800F04E
:101C6C002CF87B681B681B6903F02003202B0ED11A
:101C7C007B681B68DB6803F02003202B07D17B6893
:101C8C001B686FF020021A61786800F081F800BFC1
:101C9C000837BD4680BD80B483B000AF786000BF0C
:101CAC000C37BD4680BC704780B483B000AF786001
:101CBC0000BF0C37BD4680BC704780B483B000AF0A
:101CCC00786000BF0C37BD4680BC704780B485B0CF
:101CDC0000AF786039607B681B68FB607B68294AC1
:101CEC0093420BD07B68B3F1804F07D07B68264AB8
:101CFC00934203D07B68254A934208D1FB6823F0BA
:101D0C007003FB603B685B68FA681343FB607B689D
:101D1C001C4A93420BD07B68B3F1804F07D07B6891
:101D2C00194A934203D07B68184A934208D1FB6846
:101D3C0023F44073FB603B68DB68FA681343FB6079
:101D4C00FB6823F080023B685B691343FB607B6894
:101D5C00FA681A603B689A687B68DA623B681A68B2
:101D6C007B689A627B68074A934203D13B681A6985
:101D7C007B681A637B6801225A6100BF1437BD4629
:101D8C0080BC7047002C014000040040000800405B
:101D9C0080B483B000AF786000BF0C37BD4680BC08
:101DAC00704780B483B000AF786000BF0C37BD467D
:101DBC0080BC704780B582B000AF78607B68002B28
:101DCC0001D101233FE07B6893F83930DBB2002B63
:101DDC0006D17B68002283F838207868FEF798FCDF
:101DEC007B68242283F839207B681B68DA687B685F
:101DFC001B6822F40052DA60786800F07DFB7B6887
:101E0C001B681A697B681B6822F490421A617B6814
:101E1C001B685A697B681B6822F02A025A617B682E
:101E2C001B68DA687B681B6842F40052DA607B68D6
:101E3C000022DA637B68202283F839207B68202219
:101E4C0083F83A20002318460837BD4680BD80B57C
:101E5C0088B002AFF860B9603B601346FB8000238A
:101E6C007B61FB6893F83930DBB2202B40F0838028
:101E7C00BB68002B02D0FB88002B01D101237BE037
:101E8C00FB6893F83830012B01D1022374E0FB6816
:101E9C00012283F83820FB680022DA63FB682122D8
:101EAC0083F83920FEF79CFD7861FB68FA889A84E8
:101EBC00FB68FA88DA8442E0FB68DB8C9BB2013B5E
:101ECC009AB2FB68DA84FB689B68B3F5805F22D119
:101EDC003B6800937B6900228021F86800F0A2F92E
:101EEC000346002B01D0032346E0BB683B613B69F2
:101EFC001B881A46FB681B68C2F308025A60FB6811
:101F0C001B69002B03D1BB680233BB6017E0BB68B5
:101F1C000133BB6013E03B6800937B690022802196
:101F2C00F86800F07FF90346002B01D0032323E06F
:101F3C00BB685A1CBA601A78FB681B685A60FB684D
:101F4C00DB8C9BB2002BB7D13B6800937B690022E2
:101F5C004021F86800F066F90346002B01D00323FA
:101F6C000AE0FB68202283F83920FB68002283F802
:101F7C003820002300E0022318461837BD4680BDE8
:101F8C0080B485B000AFF860B9601346FB80FB6885
:101F9C0093F83930DBB2202B30D1BB68002B02D048
:101FAC00FB88002B01D1012329E0FB6893F8383022
:101FBC00012B01D1022322E0FB68012283F8382097
:101FCC00FB68BA681A62FB68FA889A84FB68FA881C
:101FDC00DA84FB680022DA63FB68212283F839205B
:101FEC00FB68002283F83820FB681B68DA68FB6802
:101FFC001B6842F08002DA60002300E002231846DE
:10200C001437BD4680BC704780B588B000AF78608F
:10201C007B681B681B68FB617B681B68DB68BB61AA
:10202C007B681B685B697B6100233B610023FB6061
:10203C00FB6903F00F033B613B69002B0DD1FB697E
:10204C0003F02003002B08D0BB6903F02003002B06
:10205C0003D0786800F0CEF9CCE03B69002B00F09F
:10206C00AB807B6903F00103002B05D1BB6903F442
:10207C009073002B00F0A080FB6903F00103002B90
:10208C000AD0BB6903F48073002B05D07B68DB6B33
:10209C0043F001027B68DA63FB6903F00403002B55
:1020AC000AD07B6903F00103002B05D07B68DB6B46
:1020BC0043F002027B68DA63FB6903F00203002B36
:1020CC000AD07B6903F00103002B05D07B68DB6B26
:1020DC0043F004027B68DA63FB6903F00803002B0E
:1020EC000AD07B6903F00103002B05D07B68DB6B06
:1020FC0043F008027B68DA637B68DB6B002B78D0DB
:10210C00FB6903F02003002B07D0BB6903F020030D
:10211C00002B02D0786800F06DF97B681B685B6956
:10212C0003F04003002B14BF01230023DBB2FB6040
:10213C007B68DB6B03F00803002B02D1FB68002BE0
:10214C0031D0786800F0B8F87B681B685B6903F0E5
:10215C004003002B23D07B681B685A697B681B6883
:10216C0022F040025A617B685B6B002B13D07B68BA
:10217C005B6B224A5A637B685B6B1846FEF770FDFB
:10218C000346002B16D07B685B6B5B6B7A68526BDB
:10219C00104698470EE0786800F03BF80AE0786843
:1021AC0000F037F806E0786800F033F87B6800221E
:1021BC00DA631EE000BF1CE0FB6903F08003002B18
:1021CC0008D0BB6903F08003002B03D0786800F0C3
:1021DC00A4F80FE0FB6903F04003002B0AD0BB69A5
:1021EC0003F04003002B05D0786800F0EBF800BF3B
:1021FC0000E000BF2037BD4680BD00BFFF220008B5
:10220C0080B483B000AF786000BF0C37BD4680BC93
:10221C00704780B483B000AF786000BF0C37BD4608
:10222C0080BC704780B584B000AFF860B9603B608B
:10223C001346FB712CE0BB69B3F1FF3F28D0BB699F
:10224C00002B07D0FEF7CCFB02463B68D31ABA69C9
:10225C009A421DD2FB681B68DA68FB681B6822F483
:10226C00D072DA60FB681B685A69FB681B6822F045
:10227C0001025A61FB68202283F83920FB68202276
:10228C0083F83A20FB68002283F8382003230FE000
:10229C00FB681B681A68BB681340BA689A420CBF8B
:1022AC0001230023DBB21A46FB799A42C3D00023E8
:1022BC0018461037BD4680BD80B483B000AF78603F
:1022CC007B681B68DA687B681B6822F49072DA60A2
:1022DC007B681B685A697B681B6822F001025A6193
:1022EC007B68202283F83A2000BF0C37BD4680BCA7
:1022FC00704780B584B000AF78607B685B6AFB6028
:10230C00FB680022DA85FB680022DA84F868FFF7A4
:10231C0080FF00BF1037BD4680BD80B485B000AFD4
:10232C0078607B6893F83930DBB2212B44D17B6821
:10233C009B68B3F5805F1AD17B681B6AFB60FB68F6
:10234C001B881A467B681B68C2F308025A607B68BC
:10235C001B69002B05D17B681B6A9A1C7B681A626F
:10236C000EE07B681B6A5A1C7B681A6208E07B686B
:10237C001B6A591C7A6811621A787B681B685A6050
:10238C007B68DB8C9BB2013B9BB27A681946D1848B
:10239C00002B0FD17B681B68DA687B681B6822F006
:1023AC008002DA607B681B68DA687B681B6842F025
:1023BC004002DA60002300E0022318461437BD46C1
:1023CC0080BC704780B582B000AF78607B681B68BA
:1023DC00DA687B681B6822F04002DA607B68202296
:1023EC0083F839207868FEF723F90023184608375C
:1023FC00BD4680BD80B584B000AF78607B6893F833
:10240C003A30DBB2222B71D17B689B68B3F5805FCD
:10241C0023D17B689B6AFB607B681B69002B0ED108
:10242C007B681B685B689BB2C3F308039AB2FB68BA
:10243C001A807B689B6A9A1C7B689A6229E07B688D
:10244C001B685B689BB2DBB29AB2FB681A807B6834
:10245C009B6A5A1C7B689A621BE07B681B69002B89
:10246C000AD17B681B6858687B689B6A591C7A6820
:10247C009162C2B21A700CE07B681B685B68DAB2BE
:10248C007B689B6A581C7968886202F07F02D2B222
:10249C001A707B68DB8D9BB2013B9BB27A68194644
:1024AC00D185002B20D17B681B68DA687B681B68A0
:1024BC0022F02002DA607B681B68DA687B681B6894
:1024CC0022F48072DA607B681B685A697B681B682F
:1024DC0022F001025A617B68202283F83A20786846
:1024EC00FFF78EFE002302E0002300E002231846D3
:1024FC001037BD4680BD000080B584B000AF786059
:10250C007B681B681B6923F440517B68DA687B6825
:10251C001B680A431A617B689A687B681B691A43BB
:10252C007B685B691343FB607B681B68DB6823F487
:10253C00B05323F00C037A681268F9680B43D3602C
:10254C007B681B685B6923F440717B689A697B68C4
:10255C001B680A435A617B681B68524A93424ED1EE
:10256C00FFF750F9B860BA6813469B0013449A0001
:10257C001A447B685B689B00B2FBF3F34A4AA2FBEC
:10258C0003235B091901BA6813469B0013449A0094
:10259C001A447B685B689B00B2FBF3F2424BA3FBD3
:1025AC0002035B09642000FB03F3D31A1B013233D3
:1025BC003D4AA2FB03235B0903F0F0031944BA68FC
:1025CC0013469B0013449A001A447B685B689B007B
:1025DC00B2FBF3F2344BA3FB02035B09642000FB58
:1025EC0003F3D31A1B0132332F4AA2FB03235B09DB
:1025FC0003F00F027B681B680A449A604DE0FFF7FA
:10260C00EDF8B860BA6813469B0013449A001A445C
:10261C007B685B689B00B2FBF3F3234AA2FB0323AA
:10262C005B091901BA6813469B0013449A001A44BB
:10263C007B685B689B00B2FBF3F21B4BA3FB0203B2
:10264C005B09642000FB03F3D31A1B013233164AD7
:10265C00A2FB03235B0903F0F0031944BA68134689
:10266C009B0013449A001A447B685B689B00B2FB86
:10267C00F3F20D4BA3FB02035B09642000FB03F395
:10268C00D31A1B013233084AA2FB03235B0903F064
:10269C000F027B681B680A449A6000BF1037BD4666
:1026AC0080BD00BF003801401F85EB51014B1868FD
:1026BC00704700BF0C00002070B500260C4D0D4C6F
:1026CC00641BA410A64209D100F04AFC00260A4D56
:1026DC000A4C641BA410A64205D170BD55F8043BEE
:1026EC0098470136EEE755F8043B98470136F2E778
:1026FC00EC2F0008EC2F0008EC2F0008F02F00083E
:10270C0003460244934200D1704703F8011BF9E7DA
:10271C000EB46FF0004100B59CB01DAB029006905A
:10272C00079104910848094953F8042B0591006856
:10273C0002A9019300F068F80022029B1A701CB0E9
:10274C005DF804EB03B070470C0000200802FFFF9B
:10275C002DE9F0478E6882469E420C46914698467B
:10276C0038D8B1F80CC01CF4906F31D06269256870
:10277C00096902EB42026F1A02EBD2720133551057
:10278C003B449D4238BF1D461CF4806F30D0294617
:10279C0000F040FB064650B90C234FF0FF30CAF84E
:1027AC000030A38943F04003A381BDE8F0873A468B
:1027BC00216900F0BBFAA38923F4906343F08003F2
:1027CC00A38126613E44266046466561ED1BA560EB
:1027DC00464500D9464632464946206800F0B4FAD0
:1027EC00A36800209B1BA36023681E442660DCE7C3
:1027FC002A4600F069FB06460028E2D121695046C2
:10280C0000F0BCFAC8E700002DE9F04F1E468B899A
:10281C009DB01B0607460D4614460ED50B6963B9D1
:10282C00402100F0F7FA2860286120B90C233B60A6
:10283C004FF0FF30C9E040236B6100230993202344
:10284C008DF8293030234FF0010ADFF898918DF87C
:10285C002A30039623461E4613F8012B0AB1252A6B
:10286C00F9D1B6EB040B0BD05B4622462946384611
:10287C00FFF76EFF013000F0A380099B5B440993C6
:10288C003378002B00F09C8000234FF0FF32CDE911
:10289C0005230136049307938DF853301A9334466D
:1028AC00052214F8011B4F4800F032FA049BC0B902
:1028BC00D90644BF20228DF853201A0744BF2B227F
:1028CC008DF8532032782A2A13D0344600200A2659
:1028DC00079A214611F8013B303B092B4BD970B9B3
:1028EC0014E0A0EB09000AFA00F018430490264605
:1028FC00D5E7039A111D12680391002A01DB079298
:10290C0004E0524243F002030792049323782E2BE7
:10291C000CD163782A2B33D1039B02341A1D1B680C
:10292C000392002BB8BF4FF0FF3305932E4E0322BA
:10293C002178304600F0ECF938B14023801B03FAC3
:10294C0000F0049B01340343049314F8011B06228A
:10295C0026488DF8281000F0DBF9002838D0244BDD
:10296C0013BB039B073323F0070308330393099B23
:10297C00434409936EE706FB023201200C46A8E79C
:10298C0000230A26194601340593204610F8012B22
:10299C00303A092A03D9002BC8D00591C6E706FBAB
:1029AC00012101230446F0E703AB00932A46114BA7
:1029BC0004A93846AFF30080B0F1FF3F8046D6D172
:1029CC00AB895B063FF534AF09981DB0BDE8F08FBD
:1029DC0003AB00932A46074B04A9384600F082F853
:1029EC00EAE700BFB82F0008BE2F0008C22F00086E
:1029FC00000000005D2700082DE9F04791461F46B6
:102A0C008A680B6906469342B8BF1346C9F8003072
:102A1C0091F843200C46DDF8208012B10133C9F83F
:102A2C0000302368990642BFD9F800300233C9F848
:102A3C000030256815F0060507D104F1190AE36882
:102A4C00D9F800209B1AAB4229DC94F84330226859
:102A5C00003318BF012392062ED404F143023946E9
:102A6C003046C047013021D02368E56803F00603E7
:102A7C00042B18BF0025D9F800204FF0000908BF1F
:102A8C00AD1AA368226908BF25EAE5759342C4BF55
:102A9C009B1AED181A344D451AD1002008E0012379
:102AAC00524639463046C047013003D14FF0FF3013
:102ABC00BDE8F0870135C2E73020E11881F843000A
:102ACC005A1C94F845102244023382F84310C4E790
:102ADC000123224639463046C0470130E6D009F181
:102AEC000109D8E72DE9F04306460C4601F14300F5
:102AFC00097E85B06E29984617460C9B00F0BB806A
:102B0C0024D8632939D00AD8002900F0C480582968
:102B1C0000F0928004F1420584F8421035E06429FB
:102B2C0001D06929F6D125681A6815F0800F02F1D9
:102B3C0004012CD012681960002A03DA2D235242AA
:102B4C0084F84330DFF8C0C10A233FE0732900F05A
:102B5C00A68008D86F2921D07029DBD1226842F0D9
:102B6C002002226003E0752918D07829D2D178226E
:102B7C00DFF898C184F8452062E01A6804F1420538
:102B8C00111D1960136884F84230012394E0126817
:102B9C0015F0400F196018BF12B2CDE7D4F800C081
:102BAC001A681CF0800F02F104051D6001D0126838
:102BBC0003E01CF0400FFAD012886F290CBF0823D9
:102BCC000A23DFF844C1002184F843106568002D06
:102BDC00A8BF2168A560A4BF21F0040121600AB937
:102BEC00002D46D00546B2FBF3F103FB112E1CF869
:102BFC000EE0934205F801ED39D9082B0BD123686F
:102C0C00DA0708D5236962689A42DEBF302305F8DB
:102C1C00013C05F1FF35401B2061CDF800803B469F
:102C2C0003AA21463046FFF7E7FE013049D14FF0A9
:102C3C00FF3005B0BDE8F083DFF8CCC084F8451058
:102C4C001D68216855F8042B1D600D060BD5CD07AA
:102C5C0044BF41F0200121601AB9236823F02003FE
:102C6C0023601023AFE74B0648BF92B2EFE70A464A
:102C7C00B9E70546C1E71A68D4F800C0151D6169AB
:102C8C001CF0800F1D60136801D0196003E01CF06C
:102C9C00400FFAD01980002305462361BDE71A685E
:102CAC00111D1960156800216268284600F030F883
:102CBC0008B1401B606063682361002384F84330D3
:102CCC00ABE723692A4639463046C0470130AED0BF
:102CDC0023689B0713D4E068039B9842B8BF18463F
:102CEC00A7E701234A4639463046C04701309ED0FB
:102CFC000135E368039A9B1AAB42F2DCEBE7002543
:102D0C0004F11909F5E700BFC92F0008DA2F0008F4
:102D1C0010B5C9B202449042034601D1002303E02E
:102D2C001C7801308C42F6D1184610BD0A449142F1
:102D3C0000F1FF3300D1704710B511F8014B9142EF
:102D4C0003F8014FF9D110BD884210B501EB020315
:102D5C0002D983421C4607D8421E994208D011F86A
:102D6C00014B02F8014FF8E783189A1A9A4200D1E6
:102D7C0010BD14F8011D03F8011DF7E738B5054621
:102D8C00002943D051F8043C0C1F002BB8BFE418A9
:102D9C0000F0D0F81E4A1368104633B96360146013
:102DAC002846BDE8384000F0CBB8A3420BD92168C7
:102DBC006218934201BF1A685B6852182260636004
:102DCC000460EDE713465A680AB1A242FAD91968B1
:102DDC005818A0420BD1206801445818824219603F
:102DEC00DED110685268014419605A60D8E702D9E4
:102DFC000C232B60D4E7206821188A4201BF11688C
:102E0C0052680918216062605C60C9E738BD00BF78
:102E1C0078030020F8B5CD1C25F0030508350C2DE2
:102E2C0038BF0C25002D064601DBA94203D90C2323
:102E3C0033600020F8BD00F07DF821490A68144683
:102E4C009CB9204F3B6823B92146304600F062F80C
:102E5C0038602946304600F05DF8431C23D10C2322
:102E6C003046336000F06CF8E3E723685B1B17D443
:102E7C000B2B03D923601C44256004E06368A24239
:102E8C000CBF0B605360304600F05AF804F10B0095
:102E9C00231D20F00700C21ACCD01B1AA350C9E77F
:102EAC0022466468CCE7C41C24F00304A042E3D09F
:102EBC00211A304600F02EF80130DDD1CFE700BFEB
:102ECC00780300207C030020F8B5074614460E4614
:102EDC0021B91146BDE8F840FFF79CBF22B9FFF7B6
:102EEC004DFF25462846F8BD00F030F8A0420FD221
:102EFC0021463846FFF78EFF05460028F2D03146B2
:102F0C002246FFF713FF31463846FFF737FFE9E754
:102F1C003546E7E738B50023054C054608462360DF
:102F2C00FDF7A6FC431C02D1236803B12B6038BD0E
:102F3C0094030020014800F011B800BF9C0300204E
:102F4C00014800F00CB800BF9C03002051F8043C71
:102F5C00181F002BBCBF0B58C01870477047704728
:102F6C00F8B500BFF8BC08BC9E467047F8B500BF6A
:082F7C00F8BC08BC9E4670473A
:102F8400256C75200D0A00000203040506070809D4
:102F94000A0B0C0D0E0F10100102000000000000BF
:102FA40000000000010203040607080900000000F5
:102FB40001020304232D302B2000686C4C0065664D
:102FC4006745464700303132333435363738394176
:102FD400424344454600303132333435363738398C
:082FE400616263646566000090
:042FEC008501000853
:042FF0005D01000877
:102FF4000024F40010000000010000001000002074
:1030040000000000000000000000000000000000BC
:1030140000000000000000000000000000000000AC
:10302400000000000000000000000000000000009C
:10303400000000000000000000000000000000008C
:10304400000000000000000000000000000000007C
:10305400000000000000000000000000000000006C
:04000005080001A945
:00000001FF
