:020000040800F2
:1000000000500020A9010008F1010008F1010008DA
:10001000F1010008F1010008F101000800000000F2
:10002000000000000000000000000000F1010008D6
:10003000F101000800000000F1010008EF060008CF
:10004000F1010008F1010008F1010008F1010008C8
:10005000F1010008F1010008F1010008F1010008B8
:10006000F1010008F1010008F1010008F1010008A8
:10007000F1010008F1010008F1010008F101000898
:10008000F1010008F1010008F1010008F101000888
:10009000F1010008F1010008F1010008F101000878
:1000A000F1010008F1010008F1010008F101000868
:1000B000F10100082907000815070008F1010008F0
:1000C000F1010008F1010008F1010008F101000848
:1000D000F101000801070008F1010008F101000822
:1000E000F1010008F1010008F10100080000000022
:1000F0000000000000000000000000000000000000
:0C01000000000000000000005FF808F1A3
:10010C00034613F8012B002AFBD1181A013870474B
:10011C000348044B834202D0034B03B1184770478A
:10012C00C8000020C8000020000000000548064957
:10013C00091A891001EBD171491002D0034B03B19C
:10014C0018477047C8000020C800002000000000BD
:10015C0010B5064C237843B9FFF7DAFF044B13B103
:10016C000448AFF300800123237010BDC8000020A9
:10017C0000000000B042000808B5054B1BB1054952
:10018C000548AFF30080BDE80840FFF7CFBF00BFC4
:10019C0000000000CC000020B0420008002103E069
:1001AC000B4B5B58435004310A480B4B42189A4294
:1001BC00F6D30A4A02E0002342F8043B084B9A4269
:1001CC00F9D300F095FE03F019FC00F0B1FA70477A
:1001DC005043000800000020C8000020C800002088
:1001EC00E0040020FEE780B483B000AF78600B46DB
:1001FC00FB701346BB70FB787A681344BA789A7319
:10020C0000BF0C37BD4680BC7047000080B582B083
:10021C0000AF7860284B1B78012B1AD0022B2FD003
:10022C00002B44D17B681B681B6841F27072DA6248
:10023C007B681B6841F27072DA607B6898687B6837
:10024C009B890122194601F011FA1B4B01221A70ED
:10025C002EE07B681B681B684FF49662DA627B6841
:10026C001B684FF49662DA607B6898687B689B89A0
:10027C000022194601F0FAF90F4B02221A7017E00E
:10028C000D4B00221A707B681B68184602F09EFA10
:10029C000A4B01221A707B6898687B689B89012243
:1002AC00194601F0E3F9786800F00AF800E000BFA5
:1002BC0000BF0837BD4680BDE4000020E5000020EB
:1002CC0080B582B000AF7860234B1B78002B17D021
:1002DC00224B1B68214A43F0006313601F4B1B68C1
:1002EC001E4A43F0807313607B6858687B680E333A
:1002FC0040F20122194603F02EF8174B00221A7017
:10030C00154B1B78002B23D1154B1B68002B1FD1D1
:10031C007B685B6893F83930DBB2212B18D07B6893
:10032C009B891A460F4B1A600E4B01225A600D4BDB
:10033C0000229A600B4B0122DA607B689B680949AA
:10034C00184601F039F87B681B68184602F01BFA56
:10035C0000BF0837BD4680BDE5000020000C014001
:10036C00000800406C04002080B584B002AF7860B7
:10037C007B681B682E4A13607B681A7A2C4B1A72A6
:10038C007B685B682A4A53607B68DB7A5B00DAB275
:10039C00274BDA727B689A7A254B9A727B685A7A69
:1003AC00234B5A720022234B1A703822214B5A705D
:1003BC001F4B18681E4BDB7A99B24FF0FF3300933A
:1003CC0002231C4A01F09EFA0123184600F026FE77
:1003DC000022184B1A703922164B5A70154B1422E6
:1003EC009A70144B7922DA70124B50221A71114BFD
:1003FC006C225A710C220F4B9A7101220D4BDA713F
:10040C000B4B18680A4BDB7A99B24FF0FF33009311
:10041C000823084A01F076FA074B01221A700123CF
:10042C00184600F0FBFD00BF0837BD4680BD00BF7D
:10043C00E80000207C040020E600002080B584B099
:10044C0002AF0346FB7100220C4B1A700B4AFB796E
:10045C0053700B4B18680A4BDB7A99B24FF0FF3391
:10046C0000930223054A01F04DFA0123184600F0CF
:10047C00D5FD00BF0837BD4680BD00BF7C04002001
:10048C00E800002080B584B000AF03460A46FB713B
:10049C001346BB710023FB730F4B1B78002B16D03C
:1004AC000E4B5B7A5A1EF9790D4813465B001344C8
:1004BC0003440B441B78FB738022FB7B1344DAB29E
:1004CC00BB791344FB73FB7B1846FFF7B7FF00BFE8
:1004DC001037BD4680BD00BFE6000020E8000020BC
:1004EC00F042000880B584B002AF0346FB71134B99
:1004FC001B78002B1DD0FB790A2B04D10021012085
:10050C00FFF7C0FF15E040220D4B1A700C4AFB7927
:10051C0053700C4B18680B4BDB7A99B24FF0FF33CE
:10052C0000930223064A01F0EDF90023184600F06F
:10053C0075FD00BF0837BD4680BD00BFE60000203A
:10054C007C040020E8000020B0B584B002AF7860D5
:10055C0050220021144803F075FA144B1B78002B21
:10056C001DD040231A467B6811490F4803F072FADC
:10057C00104B1C680F4BDB7A9DB20B48FFF7C0FD8C
:10058C0003469AB24FF0FF3300931346064A2946AE
:10059C00204601F0B7F90023184600F03FFD00BFDC
:1005AC000837BD46B0BD00BF7C040020E60000202B
:1005BC00C8420008E800002080B586B002AF786021
:1005CC000B46FB70FB780822934229DAFB78FB730D
:1005DC00FB7BDB00FB73FB7B4033FB73124B1B7809
:1005EC00002B1DD038231846FFF728FF00231A468E
:1005FC00FB7B0E490E4803F02DFA0E4B18680D4B81
:10060C00DB7A99B24FF0FF3300930223084A01F0D2
:10061C0079F97868FFF798FF39231846FFF70EFF32
:10062C0000BF1037BD4680BDE6000020D042000858
:10063C007C040020E800002080B58AB000AF03469F
:10064C00FB711B4B1B78002B2DD0FB79642B22D814
:10065C00FB79184A5268D26802FB03F3164AA2FBD4
:10066C0003235B09FB846023BB60FB8C0133FB60C1
:10067C000023BB6100233B610E4B58680D4B1B7A6A
:10068C001A4607F10803194602F016FB0346002B25
:10069C0001D000F0C5F8074B5A68064B1B7A194677
:1006AC00104602F0E9F800BF2837BD4680BD00BFF8
:1006BC00E6000020E80000201F85EB5180B500AF5C
:1006CC0001231846FFF7BAFE00BF80BD80B500AF0E
:1006DC000C2201231343DBB21846FFF7AFFE00BF19
:1006EC0080BD80B500AF00F0E5FD00F07BFC00BFE5
:1006FC0080BD000080B500AF024802F071FE00BF63
:10070C0080BD00BFF400002080B500AF024802F0AD
:10071C00CBF900BF80BD00BFC801002080B500AF81
:10072C00024802F0C1F900BF80BD00BF08020020E2
:10073C0080B584B000AF00F00FFC00F0CBF800F0F7
:10074C0073F800F001F900F02BF900F0A9F92A4B2D
:10075C002A4A5A60284B2A4A1A60274B294A9A601F
:10076C00254B40229A813B1D00221A605A609A60E8
:10077C00254B7B60254BBB6004233B733E23FB73F3
:10078C001023BB7302237B733B1D1846FFF7ECFD54
:10079C003220FFF751FF00211D48FFF70DFF00210C
:1007AC000020FFF76FFE0020FFF79CFE01210020C8
:1007BC00FFF768FE1748FFF7C7FEFFF787FFFF221A
:1007CC0001210D48FFF70FFD0B48FFF779FD0421C0
:1007DC00114802F011F9114B1B78002BFBD0FFF7DD
:1007EC006DFF00210120FFF74DFE0A48FFF7ACFE1C
:1007FC000A4B00221A70EEE748020020F400002099
:10080C00C8010020000C01407401002034010020BC
:10081C005000002000000020080200205C04002092
:10082C0080B400AFFEE7000080B590B000AF07F1D8
:10083C00180328220021184603F004F90123BB6198
:10084C004FF48033FB6102237B634FF48033BB6333
:10085C004FF48013FB6307F11803184601F04CFBAF
:10086C000346002B01D0FFF7DBFF3B1D00221A6073
:10087C005A609A60DA601A610F237B600223BB60B6
:10088C000023FB604FF4C0633B614FF4C0637B619A
:10089C003B1D0121184601F0AFFD0346002B01D092
:1008AC00FFF7BEFF01F0F4FE0246084BA3FB022348
:1008BC009B09184600F0D5FC042000F0DFFC044B2B
:1008CC0000221A6000BF4037BD4680BDD34D621078
:1008DC000000424280B586B000AF194B9B69184AA4
:1008EC0043F020039361164B9B6903F020037B605C
:1008FC007B68134B9B69124A43F010039361104BB6
:10090C009B6903F010033B603B6807F1080300226E
:10091C001A605A609A60DA604FF40053BB6001238E
:10092C00FB6000233B6102237B6107F1080319463E
:10093C00044800F041FD00BF1837BD4680BD00BF24
:10094C00001002400010014080B500AF114B124A5C
:10095C001A60104B114A5A600E4B00229A600D4BD4
:10096C004FF40052DA600B4B00221A61094B08223B
:10097C005A61084B00229A61064B0022DA61054845
:10098C0002F09CFC0346002B01D0FFF749FF00BF8F
:10099C0080BD00BFF40000200038014090D003005F
:1009AC0080B590B000AF394B394A1A60374B0022F2
:1009BC005A60364B00229A60344B4FF6FE72DA6066
:1009CC00324801F0B5FE0346002B01D0FFF728FF9B
:1009DC00304B314A1A602F4B00225A602D4B0022AB
:1009EC009A602C4B4FF40062DA600323FB610A23FC
:1009FC003B6201237B620023BB620F23FB620A2351
:100A0C003B6301237B630023BB630F23FB6307F171
:100A1C001C0319461F4801F061FF0346002B01D04F
:100A2C00FFF7FEFE1D4B4FF080421A601B4B31222C
:100A3C005A601A4B00229A60184B40F2CF72DA605F
:100A4C00164B80229A61154B00221A61134801F053
:100A5C00E7FE0346002B01D0FFF7E2FE60233B606C
:100A6C004FF4FA737B6000233B610023BB603B4671
:100A7C0004221946094802F01FF90346002B01D045
:100A8C00FFF7CEFE00BF4037BD4680BDC801002039
:100A9C00000800400802002000040040340100203F
:100AAC0080B500AF0C4B0D4A1A600B4B0C4A5A60C8
:100ABC00094B00229A60084B0122DA60064B4FF476
:100ACC0080421A61044800F0E9FD0346002B01D076
:100ADC00FFF7A6FE00BF80BD74010020005400404B
:100AEC00400D030080B582B000AF78607B681A6857
:100AFC00054B1B681B689A4202D10348FFF786FB23
:100B0C0000BF0837BD4680BD4802002080B582B0CA
:100B1C0000AF78607B681A68054B5B681B689A426B
:100B2C0002D10348FFF7CCFB00BF0837BD4680BDA0
:100B3C004802002080B582B000AF78607B681B68EB
:100B4C000F4A934217D17B681B685B6A9B080D4A5E
:100B5C0013600C4B1B68002B03D10A4B4FF4007233
:100B6C001A60084B1B681A460749084802F072FFC6
:100B7C00074B01221A7000BF0837BD4680BD00BF6D
:100B8C000004004058040020D84200080000002057
:100B9C005C04002080B582B000AF032000F02CFB79
:100BAC00134B5B6A124A43F4E02353620022002188
:100BBC006FF00B0000F02BFB002200216FF00A00FD
:100BCC0000F025FB002200216FF0090000F01FFB54
:100BDC00084B9B69074A43F001039361054B9B69E2
:100BEC0003F001037B607B6800BF0837BD4680BD06
:100BFC0000ED00E00010024080B58AB000AF7860D4
:100C0C007B681A68214B1B689A423BD1204B9B692D
:100C1C001F4A43F4804393611D4B9B6903F480434B
:100C2C003B613B691A4B9B69194A43F0080393617A
:100C3C00174B9B6903F00803FB60FB6840237B6147
:100C4C000223BB610023FB6101233B6207F1140308
:100C5C001946104800F0B0FB0F4B5B687B627B6A57
:100C6C0043F0E0637B627B6A43F004037B620A4AD5
:100C7C007B6A5360252000F0E6FA00220F21252024
:100C8C0000F0C5FA00BF2837BD4680BDF400002037
:100C9C0000100240000C01400000014080B584B0FF
:100CAC0000AF78607B681A680D4B1B689A4213D1B1
:100CBC000C4BDB690B4A43F00403D361094BDB6932
:100CCC0003F00403FB60FB681E2000F0BCFA00225A
:100CDC000E211E2000F09BFA00BF1037BD4680BDD0
:100CEC00C80100200010024080B588B000AF7860C9
:100CFC007B681A681A4B1B689A422DD1194BDB6919
:100D0C00184A43F00203D361164BDB6903F002036C
:100D1C00FB60FB68134B9B69124A43F0040393611D
:100D2C00104B9B6903F00403BB60BB6800237B6121
:100D3C00C0233B610223BB610223FB6107F110035B
:100D4C001946094800F038FB1D2000F07CFA0022FF
:100D5C000F211D2000F05BFA00BF2037BD4680BD7F
:100D6C0008020020001002400008014080B588B045
:100D7C0000AF78607B681A68164B1B689A4225D1C5
:100D8C00154BDB69144A43F00103D361124BDB6949
:100D9C0003F00103FB60FB680F4B9B690E4A43F0A9
:100DAC00040393610C4B9B6903F00403BB60BB68A9
:100DBC0002237B6102233B610123BB610223FB61A4
:100DCC0007F110031946054800F0F6FA00BF20376A
:100DDC00BD4680BD340100200010024000080140D7
:100DEC0080B58AB000AF78607B681A68264B1B68A8
:100DFC009A4244D1254BDB69244A43F40013D36156
:100E0C00224BDB6903F400133B613B691F4B9B696D
:100E1C001E4A43F0080393611C4B9B6903F00803C3
:100E2C00FB60FB680223BB614FF440737B610023C2
:100E3C00FB6102233B6207F114031946144800F0CE
:100E4C00BBFA144B5B687B627B6A43F0E0637B62AA
:100E5C007B6A43F002037B620E4A7B6A53601F205D
:100E6C0000F0F1F9202000F0EEF900220F211F20F4
:100E7C0000F0CDF900220F21202000F0C8F900BFAE
:100E8C002837BD4680BD00BF740100200010024011
:100E9C00000C01400000014080B584B000AF7860C8
:100EAC00114B1B68002B02D10F4B104A1A600E4BD2
:100EBC001B68FB600C4B1A687B6813446A469342B0
:100ECC0007D902F095FD02460C2313604FF0FF3357
:100EDC0006E0054B1A687B681344034A1360FB68F1
:100EEC0018461037BD4680BD60040020E004002089
:100EFC0080B400AF154B1B68144A43F00103136018
:100F0C00124B5A681149124B13404B600F4B1B6824
:100F1C000E4A23F0847323F4803313600B4B1B684D
:100F2C000A4A23F480231360084B5B68074A23F4B6
:100F3C00FE035360054B4FF41F029A60054B4FF0B4
:100F4C0000629A6000BFBD4680BC70470010024032
:100F5C000000FFF800ED00E080B500AF084B1B6807
:100F6C00074A43F010031360032000F045F90020FA
:100F7C0000F008F8FFF70EFE0023184680BD00BFF6
:100F8C000020024080B582B000AF7860124B1A6826
:100F9C00124B1B7819464FF47A73B3FBF1F3B2FB87
:100FAC00F3F3184600F05DF90346002B01D0012342
:100FBC000EE07B680F2B0AD8002279684FF0FF30C7
:100FCC0000F025F9064A7B681360002300E001233A
:100FDC0018460837BD4680BD580000206000002030
:100FEC005C00002080B400AF054B1B781A46054B03
:100FFC001B681344034A136000BFBD4680BC704796
:10100C0060000020CC04002080B400AF024B1B68B1
:10101C001846BD4680BC7047CC04002080B584B017
:10102C0000AF7860FFF7F0FFB8607B68FB60FB688F
:10103C00B3F1FF3F05D0094B1B781A46FB681344EC
:10104C00FB6000BFFFF7E0FF0246BB68D31AFA68EB
:10105C009A42F7D800BF1037BD4680BD6000002013
:10106C0080B485B000AF78607B6803F00703FB6049
:10107C000C4BDB68BB60BA684FF6FF031340BB60D8
:10108C00FB681A02BB68134343F0BF6343F400339D
:10109C00BB60044ABB68D36000BF1437BD4680BC3C
:1010AC00704700BF00ED00E080B400AF044BDB687C
:1010BC001B0A03F007031846BD4680BC704700BFEF
:1010CC0000ED00E080B483B000AF0346FB7197F9EC
:1010DC000730002B0BDBFB7903F01F02064997F955
:1010EC0007305B09012000FA02F241F8232000BF0F
:1010FC000C37BD4680BC704700E100E080B483B083
:10110C0000AF03463960FB7197F90730002B0ADBFF
:10111C003B68DAB20C4997F907301201D2B20B4492
:10112C0083F800230AE03B68DAB20849FB7903F044
:10113C000F03043B1201D2B20B441A7600BF0C37DA
:10114C00BD4680BC704700BF00E100E000ED00E050
:10115C0080B489B000AFF860B9607A60FB6803F0C6
:10116C000703FB61FB69C3F10703042B28BF0423AE
:10117C00BB61FB690433062B02D9FB69033B00E01E
:10118C0000237B614FF0FF32BB6902FA03F3DA43B1
:10119C00BB681A407B699A404FF0FF317B6901FABA
:1011AC0003F3D9437B680B40134318462437BD46E1
:1011BC0080BC704780B582B000AF78607B68013B23
:1011CC00B3F1807F01D301230FE00A4A7B68013B16
:1011DC0053600F214FF0FF30FFF790FF054B0022BB
:1011EC009A60044B07221A60002318460837BD4644
:1011FC0080BD00BF10E000E080B582B000AF786029
:10120C007868FFF72DFF00BF0837BD4680BD80B55D
:10121C0086B000AF0346B9607A60FB7300237B6134
:10122C00FFF742FF78617A68B9687869FFF790FF39
:10123C00024697F90F3011461846FFF75FFF00BFC3
:10124C001837BD4680BD80B582B000AF0346FB7138
:10125C0097F907301846FFF735FF00BF0837BD4632
:10126C0080BD80B582B000AF78607868FFF7A2FFD0
:10127C00034618460837BD4680BD000080B483B0D5
:10128C0000AF78607B68042B06D1094B1B68084AB9
:10129C0043F00403136005E0054B1B68044A23F07C
:1012AC000403136000BF0C37BD4680BC704700BF01
:1012BC0010E000E080B500AF00F002F800BF80BD88
:1012CC0080B400AF00BFBD4680BC704780B584B011
:1012DC0000AF78600023FB737B6893F82130022BFE
:1012EC0005D07B6804229A630123FB7351E07B6871
:1012FC001B681A687B681B6822F00E021A607B68F8
:10130C001B681A687B681B6822F001021A607B68F4
:10131C001B68224A934229D07B681B68204A93425F
:10132C0022D07B681B681F4A93421AD07B681B68CB
:10133C001D4A934212D07B681B681C4A93420AD008
:10134C007B681B681A4A934202D14FF480130EE05B
:10135C004FF080730BE04FF4803308E04FF4805370
:10136C0005E04FF4807302E0102300E00123114AE2
:10137C0053607B68012283F821207B68002283F86C
:10138C0020207B685B6B002B03D07B685B6B7868E1
:10139C009847FB7B18461037BD4680BD08000240BD
:1013AC001C00024030000240440002405800024041
:1013BC006C0002400000024080B48BB000AF78603B
:1013CC00396000237B6200233B6227E101227B6AA8
:1013DC0002FA03F3FB613B681B68FA691340BB61BB
:1013EC00BA69FB699A4240F016813B685B68122B24
:1013FC0034D0122B0DD8022B2BD0022B04D8002B5F
:10140C0031D0012B1CD048E0032B43D0112B1BD027
:10141C0043E0894A934226D0874A934206D8874AAA
:10142C00934220D0864A93421DD036E0854A93429F
:10143C0019D0854A934216D0844A934213D02CE09B
:10144C003B68DB683B6228E03B68DB6804333B624B
:10145C0023E03B68DB6808333B621EE03B68DB68DB
:10146C000C333B6219E03B689B68002B02D10423D0
:10147C003B6212E03B689B68012B05D108233B6261
:10148C007B68FA691A6108E008233B627B68FA6999
:10149C005A6102E000233B6200BFBB69FF2B01D8FD
:1014AC007B6801E07B6804337B61BB69FF2B02D84E
:1014BC007B6A9B0002E07B6A083B9B003B617B697B
:1014CC001A680F213B6901FA03F3DB431A40396AAE
:1014DC003B6901FA03F31A437B691A603B685B684A
:1014EC0003F08053002B00F09680594B9B69584AAF
:1014FC0043F001039361564B9B6903F00103BB60FE
:10150C00BB68544A7B6A9B08023352F82330FB6059
:10151C007B6A03F003039B000F2202FA03F3DB4305
:10152C00FA681340FB607B684B4A934213D07B688C
:10153C004A4A93420DD07B68494A934207D07B6854
:10154C00484A934201D1032306E0042304E002231A
:10155C0002E0012300E000237A6A02F00302920009
:10156C009340FA681343FB603A497B6A9B08023349
:10157C00FA6841F823203B685B6803F48033002B46
:10158C0006D0394B1A683849BB6913430B6006E027
:10159C00354B1A68BB69DB43334913400B603B681E
:1015AC005B6803F40033002B06D02F4B5A682E498E
:1015BC00BB6913434B6006E02B4B5A68BB69DB439A
:1015CC00294913404B603B685B6803F48013002B84
:1015DC0006D0254B9A682449BB6913438B6006E0FF
:1015EC00214B9A68BB69DB431F4913408B603B68F6
:1015FC005B6803F40013002B06D01B4BDA681A4906
:10160C00BB691343CB6006E0174BDA68BB69DB435D
:10161C0015491340CB607B6A01337B623B681A68C7
:10162C007B6A22FA03F3002B7FF4D0AE00BF2C3779
:10163C00BD4680BC704700BF000021100000111097
:10164C0000001210000031100000321000002210B7
:10165C00001002400000014000080140000C014055
:10166C0000100140001401400004014080B483B01C
:10167C0000AF78600B467B8013467B707B78002B29
:10168C0003D07A887B681A6103E07B881A047B6834
:10169C001A6100BF0C37BD4680BC704780B584B062
:1016AC0000AF78607B68002B01D101231BE17B68C4
:1016BC0093F83D30DBB2002B06D17B68002283F817
:1016CC003C207868FFF78CFB7B68242283F83D2054
:1016DC007B681B681A687B681B6822F001021A6021
:1016EC0000F0E0FFF8607B685B68814A934207D8A2
:1016FC00FB68804A934294BF01230023DBB206E0CF
:10170C00FB687D4A934294BF01230023DBB2002B7C
:10171C0001D00123E7E0FB68784AA2FB03239B0C72
:10172C00BB607B681B685B6823F03F017B681B68B0
:10173C00BA680A435A607B681B681B6A23F03F0136
:10174C007B685B686A4A934202D8BB68013309E044
:10175C00BB684FF4967202FB03F3694AA2FB0323A6
:10176C009B0901337A6812680B4313627B681B6810
:10177C00DB6923F44F4222F0FF027B685B685C4913
:10178C008B4219D8FB68591E7B685B685B00B1FB08
:10179C00F3F3591C40F6FC730B40002B0AD0FB688A
:1017AC00591E7B685B685B00B1FBF3F30133C3F339
:1017BC000B0351E004234FE07B689B68002B11D195
:1017CC00FB68581E7B6859680B465B000B44B0FBEA
:1017DC00F3F30133C3F30B03002B0CBF01230023E2
:1017EC00DBB212E0FB68581E7B6859680B469B0005
:1017FC000B4499000B44B0FBF3F30133C3F30B031D
:10180C00002B0CBF01230023DBB2002B01D00123E2
:10181C0022E07B689B68002B0ED1FB68581E7B680E
:10182C0059680B465B000B44B0FBF3F30133C3F375
:10183C000B0343F400430FE0FB68581E7B685968A8
:10184C000B469B000B4499000B44B0FBF3F30133A4
:10185C00C3F30B0343F44043796809681343CB612A
:10186C007B681B681B6823F0C0017B68DA697B68A6
:10187C001B6A1A437B681B680A431A607B681B68E7
:10188C009B6823F4034323F0FF037A6811697A6899
:10189C00D26811437A6812680B4393607B681B68AB
:1018AC00DB6823F0FF017B685A697B689B691A43EC
:1018BC007B681B680A43DA607B681B681A687B6864
:1018CC001B6842F001021A607B6800221A647B6874
:1018DC00202283F83D207B6800221A637B6800225B
:1018EC0083F83E20002318461037BD4680BD00BF4C
:1018FC00A08601007F841E00FF083D0083DE1B4391
:10190C00D34D621080B588B002AFF8607A601A4689
:10191C000B467B8113463B81FFF776FB7861FB68B6
:10192C0093F83D30DBB2202B40F0E0807B690093D4
:10193C00192301227049F86800F058F90346002B6E
:10194C0001D00223D3E0FB6893F83C30012B01D18A
:10195C000223CCE0FB68012283F83C20FB681B6867
:10196C001B6803F00103012B07D0FB681B681A6886
:10197C00FB681B6842F001021A60FB681B681A685E
:10198C00FB681B6822F400621A60FB68212283F852
:10199C003D20FB68102283F83E20FB6800221A646D
:1019AC00FB687A685A62FB683A895A85FB685B8DDA
:1019BC009AB2FB681A85FB68504ADA6279897B69AE
:1019CC003A6AF86800F09CF80346002B01D001231A
:1019DC008DE000233B61FB681B685B693B61FB6826
:1019EC001B689B693B613B6966E07A69396AF868F8
:1019FC0000F0D2F90346002B0DD0FB681B6C042BB6
:101A0C0007D1FB681B681A68FB681B6842F40072FC
:101A1C001A6001236BE0FB685B6A1A78FB681B6831
:101A2C001A61FB685B6A5A1CFB685A62FB685B8D27
:101A3C009BB2013B9AB2FB685A85FB681B8D013B3C
:101A4C009AB2FB681A85FB681B685B6903F0040398
:101A5C00042B1BD1FB681B8D002B17D0FB685B6A1A
:101A6C001A78FB681B681A61FB685B6A5A1CFB6876
:101A7C005A62FB685B8D9BB2013B9AB2FB685A853C
:101A8C00FB681B8D013B9AB2FB681A857A69396A2F
:101A9C00F86800F0C2F90346002B0DD0FB681B6CF4
:101AAC00042B07D1FB681B681A68FB681B6842F49F
:101ABC0000721A6001231AE0FB681B8D002B94D175
:101ACC00FB681B681A68FB681B6842F400721A609A
:101ADC00FB68202283F83D20FB68002283F83E201F
:101AEC00FB68002283F83C20002300E00223184608
:101AFC001837BD4680BD00BF020010000000FFFF7C
:101B0C0080B588B002AFF8607A603B600B467B8191
:101B1C00FB68DB6A7B617B69082B06D07B69012B38
:101B2C0003D07B6913F5803F08D1FB681B681A68EA
:101B3C00FB681B6842F480721A600BE0FB681B6B3D
:101B4C00122B07D1FB681B681A68FB681B6842F4F0
:101B5C0080721A603B6800937B6800224FF0011181
:101B6C00F86800F043F80346002B01D0012335E060
:101B7C00FB681B69B3F5804F08D17B89DBB21A4631
:101B8C00FB681B6802F0FE021A611BE07B89DB110B
:101B9C00DBB203F00603DBB263F00F03DAB2FB68CF
:101BAC001B681A613B687A680E49F86800F075F892
:101BBC000346002B01D0012310E07B89DAB2FB68CD
:101BCC001B681A613B687A680749F86800F065F889
:101BDC000346002B01D0012300E0002318461837E0
:101BEC00BD4680BD080001000200010080B584B034
:101BFC0000AFF860B9603B601346FB7125E03B68B1
:101C0C00B3F1FF3F21D0FFF7FFF90246BB69D31AAE
:101C1C003A689A4202D33B68002B16D1FB6800222B
:101C2C001A63FB68202283F83D20FB68002283F8AE
:101C3C003E20FB681B6C43F02002FB681A64FB68B7
:101C4C00002283F83C20012323E0BB681B0CDBB291
:101C5C00012B0DD1FB681B685B69DA43BB68134031
:101C6C009BB2002B0CBF01230023DBB21A460CE005
:101C7C00FB681B689B69DA43BB6813409BB2002B63
:101C8C000CBF01230023DBB21A46FB799A42B6D073
:101C9C00002318461037BD4680BD80B584B000AF18
:101CAC00F860B9607A603B6051E0FB681B685B6967
:101CBC0003F48063B3F5806F23D1FB681B681A684B
:101CCC00FB681B6842F400721A60FB681B686FF4B7
:101CDC0080625A61FB6800221A63FB68202283F839
:101CEC003D20FB68002283F83E20FB681B6C43F010
:101CFC000402FB681A64FB68002283F83C20012371
:101D0C0046E07B68B3F1FF3F21D0FFF77DF9024637
:101D1C003B68D31A7A689A4202D37B68002B16D19F
:101D2C00FB6800221A63FB68202283F83D20FB68C5
:101D3C00002283F83E20FB681B6C43F02002FB68FA
:101D4C001A64FB68002283F83C20012320E0BB6866
:101D5C001B0CDBB2012B0CD1FB681B685B69DA43F3
:101D6C00BB6813409BB2002B14BF01230023DBB2D2
:101D7C000BE0FB681B689B69DA43BB6813409BB2A2
:101D8C00002B14BF01230023DBB2002B8DD10023C9
:101D9C0018461037BD4680BD80B584B000AFF860E2
:101DAC00B9607A602DE0F86800F078F80346002BF3
:101DBC0001D001232DE0BB68B3F1FF3F21D0FFF729
:101DCC0023F902467B68D31ABA689A4202D3BB68DD
:101DDC00002B16D1FB6800221A63FB68202283F8C3
:101DEC003D20FB68002283F83E20FB681B6C43F00F
:101DFC002002FB681A64FB68002283F83C20012354
:101E0C0007E0FB681B685B6903F08003802BCAD179
:101E1C00002318461037BD4680BD80B584B000AF96
:101E2C00F860B9607A602DE0F86800F037F8034686
:101E3C00002B01D001232DE0BB68B3F1FF3F21D073
:101E4C00FFF7E2F802467B68D31ABA689A4202D3CB
:101E5C00BB68002B16D1FB6800221A63FB6820229A
:101E6C0083F83D20FB68002283F83E20FB681B6C46
:101E7C0043F02002FB681A64FB68002283F83C20C4
:101E8C00012307E0FB681B685B6903F00403042B68
:101E9C00CAD1002318461037BD4680BD80B483B02C
:101EAC0000AF78607B681B685B6903F48063B3F5F3
:101EBC00806F1BD17B681B686FF480625A617B68F2
:101ECC0000221A637B68202283F83D207B68002265
:101EDC0083F83E207B681B6C43F004027B681A6419
:101EEC007B68002283F83C20012300E00023184685
:101EFC000C37BD4680BC704780B586B000AF7860AB
:101F0C007B68002B01D101236CE27B681B6803F01A
:101F1C000103002B00F08780924B5B6803F00C03ED
:101F2C00042B0CD08F4B5B6803F00C03082B12D1E5
:101F3C008C4B5B6803F48033B3F5803F0BD1894B3A
:101F4C001B6803F40033002B6CD07B685B68002BA0
:101F5C0068D1012346E27B685B68B3F5803F06D10C
:101F6C00804B1B687F4A43F4803313602EE07B6800
:101F7C005B68002B0CD17B4B1B687A4A23F48033B3
:101F8C001360784B1B68774A23F4802313601DE0A1
:101F9C007B685B68B3F5A02F0CD1724B1B68714A40
:101FAC0043F4802313606F4B1B686E4A43F48033F9
:101FBC0013600BE06B4B1B686A4A23F4803313608D
:101FCC00684B1B68674A23F4802313607B685B684B
:101FDC00002B13D0FFF718F8386108E0FFF714F85E
:101FEC0002463B69D31A642B01D90323FAE15D4BFA
:101FFC001B6803F40033002BF0D014E0FFF704F857
:10200C00386108E0FFF700F802463B69D31A642BED
:10201C0001D90323E6E1534B1B6803F40033002B77
:10202C00F0D100E000BF7B681B6803F00203002BBB
:10203C0063D04C4B5B6803F00C03002B0BD0494B6B
:10204C005B6803F00C03082B1CD1464B5B6803F454
:10205C008033002B16D1434B1B6803F00203002B7B
:10206C0005D07B681B69012B01D00123BAE13D4BE4
:10207C001B6823F0F8027B685B69DB00394913436A
:10208C000B603AE07B681B69002B20D0364B012299
:10209C001A60FEF7B9FF386108E0FEF7B5FF02469B
:1020AC003B69D31A022B01D903239BE12D4B1B68EF
:1020BC0003F00203002BF0D02A4B1B6823F0F8022C
:1020CC007B685B69DB00274913430B6015E0264BEB
:1020DC0000221A60FEF798FF386108E0FEF794FFC3
:1020EC0002463B69D31A022B01D903237AE11D4B1B
:1020FC001B6803F00203002BF0D17B681B6803F014
:10210C000803002B3AD07B689B69002B19D0174B26
:10211C0001221A60FEF778FF386108E0FEF774FFC1
:10212C0002463B69D31A022B01D903235AE10D4B0A
:10213C005B6A03F00203002BF0D0012000F0DAFA06
:10214C001CE00A4B00221A60FEF75EFF38610FE0BC
:10215C00FEF75AFF02463B69D31A022B08D9032318
:10216C0040E100BF001002400000424280044242A5
:10217C009E4B5B6A03F00203002BE9D17B681B6862
:10218C0003F00403002B00F0A6800023FB75974B93
:10219C00DB6903F08053002B0DD1944BDB69934A20
:1021AC0043F08053D361914BDB6903F08053BB60E8
:1021BC00BB680123FB758E4B1B6803F48073002BEB
:1021CC0018D18B4B1B688A4A43F480731360FEF75B
:1021DC001BFF386108E0FEF717FF02463B69D31A74
:1021EC00642B01D90323FDE0814B1B6803F480733E
:1021FC00002BF0D07B68DB68012B06D17B4B1B6A74
:10220C007A4A43F0010313622DE07B68DB68002BF4
:10221C000CD1764B1B6A754A23F001031362734B86
:10222C001B6A724A23F0040313621CE07B68DB68B0
:10223C00052B0CD16D4B1B6A6C4A43F004031362E3
:10224C006A4B1B6A694A43F0010313620BE0674B4C
:10225C001B6A664A23F001031362644B1B6A634AD0
:10226C0023F0040313627B68DB68002B15D0FEF7A8
:10227C00CBFE38610AE0FEF7C7FE02463B69D31A73
:10228C0041F28832934201D90323ABE0574B1B6ACE
:10229C0003F00203002BEED014E0FEF7B5FE38611C
:1022AC000AE0FEF7B1FE02463B69D31A41F28832CE
:1022BC00934201D9032395E04C4B1B6A03F00203B4
:1022CC00002BEED1FB7D012B05D1484BDB69474A36
:1022DC0023F08053D3617B68DB69002B00F0818095
:1022EC00424B5B6803F00C03082B61D07B68DB6905
:1022FC00022B46D13F4B00221A60FEF785FE386157
:10230C0008E0FEF781FE02463B69D31A022B01D985
:10231C00032367E0354B1B6803F00073002BF0D1EF
:10232C007B681B6AB3F5803F08D1304B5B6823F4A4
:10233C0000327B689B682D4913434B602B4B5B68C9
:10234C0023F474127B68196A7B685B6A0B43274918
:10235C0013434B60274B01221A60FEF755FE386180
:10236C0008E0FEF751FE02463B69D31A022B01D955
:10237C00032337E01D4B1B6803F00073002BF0D0D8
:10238C002FE01C4B00221A60FEF73EFE386108E07D
:10239C00FEF73AFE02463B69D31A022B01D90323FE
:1023AC0020E0124B1B6803F00073002BF0D118E0F7
:1023BC007B68DB69012B01D1012313E00B4B5B68BC
:1023CC00FB60FB6803F480327B681B6A9A4206D17F
:1023DC00FB6803F470127B685B6A9A4201D001239C
:1023EC0000E0002318461837BD4680BD001002409F
:1023FC00007000406000424280B584B000AF78604D
:10240C0039607B68002B01D10123D0E06A4B1B683B
:10241C0003F007033A689A4210D9674B1B6823F004
:10242C00070265493B6813430B60634B1B6803F061
:10243C0007033A689A4201D00123B8E07B681B6815
:10244C0003F00203002B20D07B681B6803F004030D
:10245C00002B05D0594B5B68584A43F4E06353603A
:10246C007B681B6803F00803002B05D0534B5B689B
:10247C00524A43F460535360504B5B6823F0F002B4
:10248C007B689B684D4913434B607B681B6803F06A
:10249C000103002B40D07B685B68012B07D1474BB5
:1024AC001B6803F40033002B15D101237FE07B68FC
:1024BC005B68022B07D1414B1B6803F00073002BA8
:1024CC0009D1012373E03D4B1B6803F00203002B81
:1024DC0001D101236BE0394B5B6823F003027B686D
:1024EC005B68364913434B60FEF78EFDF8600AE0DB
:1024FC00FEF78AFD0246FB68D31A41F288329342FA
:10250C0001D9032353E02D4B5B6803F00C027B686D
:10251C005B689B009A42EBD1274B1B6803F00703C7
:10252C003A689A4210D2244B1B6823F007022249C6
:10253C003B6813430B60204B1B6803F007033A689E
:10254C009A4201D0012332E07B681B6803F004033C
:10255C00002B08D0194B5B6823F4E0627B68DB68C6
:10256C00164913434B607B681B6803F00803002B70
:10257C0009D0124B5B6823F460527B681B69DB004B
:10258C000E4913434B6000F021F801460B4B5B687E
:10259C001B0903F00F030A4AD35C21FA03F3094A1F
:1025AC001360094B1B681846FEF7ECFC0023184619
:1025BC001037BD4680BD00BF002002400010024015
:1025CC00FC420008580000205C00002090B48AB047
:1025DC0000AF2A4B3C1D0FCB84E80F00284B1B8807
:1025EC003B800023FB610023BB6100237B62002343
:1025FC007B6100233B62234B5B68FB61FB6903F04F
:10260C000C03042B02D0082B03D02DE01E4B3B6295
:10261C002DE0FB699B0C03F00F0307F12802134418
:10262C0013F8243C7B61FB6903F48033002B13D03B
:10263C00144B5B685B0C03F0010307F12802134495
:10264C0013F8283CBB617B690F4A02FB03F2BB69A0
:10265C00B2FBF3F37B6204E07B690C4A02FB03F3ED
:10266C007B627B6A3B6202E0074B3B6200BF3B6ACA
:10267C0018462837BD4690BC704700BFDC420008A6
:10268C00EC4200080010024000127A0000093D00E4
:10269C0080B400AF024B1B681846BD4680BC704727
:1026AC005800002080B500AFFFF7F2FF0146054B44
:1026BC005B681B0A03F00703034AD35C21FA03F39C
:1026CC00184680BD001002400C43000880B500AFD6
:1026DC00FFF7DEFF0146054B5B68DB0A03F00703DF
:1026EC00034AD35C21FA03F3184680BD0010024064
:1026FC000C43000880B485B000AF78600A4B1B68AF
:10270C000A4AA2FB03235B0A7A6802FB03F3FB6011
:10271C0000BFFB685A1EFA60002BF9D100BF1437BA
:10272C00BD4680BC704700BF58000020D34D6210DE
:10273C0080B582B000AF78607B68002B01D101239B
:10274C001DE07B6893F83D30DBB2002B06D17B6833
:10275C00002283F83C207868FEF7A0FA7B680222FE
:10276C0083F83D207B681A687B6804331946104651
:10277C0000F084FB7B68012283F83D20002318467F
:10278C000837BD4680BD80B485B000AF78607B68EB
:10279C001B68DA687B681B6842F00102DA607B68B0
:1027AC001B689B6803F00703FB60FB68062B07D0D4
:1027BC007B681B681A687B681B6842F001021A6010
:1027CC00002318461437BD4680BC704780B483B0D4
:1027DC0000AF78607B681B68DA687B681B6822F046
:1027EC000102DA607B681B681A6A41F2111313400C
:1027FC00002B0FD17B681B681A6A40F244431340CC
:10280C00002B07D17B681B681A687B681B6822F059
:10281C0001021A60002318460C37BD4680BC704775
:10282C0080B582B000AF78607B68002B01D10123AA
:10283C001DE07B6893F83D30DBB2002B06D17B6842
:10284C00002283F83C207868FEF790FA7B6802221D
:10285C0083F83D207B681A687B6804331946104660
:10286C0000F00CFB7B68012283F83D200023184606
:10287C000837BD4680BD000080B584B000AF7860DD
:10288C0039607B681B6801223968184600F0E0FC4F
:10289C007B681B68104A934207D17B681B685A6C93
:1028AC007B681B6842F400425A647B681B689B6817
:1028BC0003F00703FB60FB68062B07D07B681B68E3
:1028CC001A687B681B6842F001021A6000231846E4
:1028DC001037BD4680BD00BF002C014080B586B0CE
:1028EC0000AF786039607B68002B01D101237FE059
:1028FC007B6893F83D30DBB2002B06D17B6800225D
:10290C0083F83C207868FEF7EFF97B68022283F8A5
:10291C003D207B681B689B687A68126823F48043AF
:10292C0023F0070393607B681A687B6804331946AD
:10293C00104600F0A3FA7B681B689B687B617B6880
:10294C001B689B693B617B681B681B6AFB603B686F
:10295C001B687A6913437B613B6923F4407323F052
:10296C0003033B613B689A683B689B691B021343FA
:10297C003A6913433B613B6923F4406323F00C0336
:10298C003B613B6923F4704323F0F0033B613B68EC
:10299C00DA683B68DB691B0213433A6913433B61FA
:1029AC003B681B691A013B681B6A1B0313433A699A
:1029BC0013433B61FB6823F02203FB603B685A68BE
:1029CC003B685B691B011343FA681343FB607B682C
:1029DC001B687A699A607B681B683A699A617B68A4
:1029EC001B68FA681A627B68012283F83D20002379
:1029FC0018461837BD4680BD80B582B000AF7860F0
:102A0C0039603B68002B03D03B68042B10D01FE0CF
:102A1C007B681B6801220021184600F019FC7B68BA
:102A2C001B68DA687B681B6842F00202DA602EE0F1
:102A3C007B681B6801220421184600F009FC7B68A6
:102A4C001B68DA687B681B6842F00402DA601EE0DF
:102A5C007B681B6801220021184600F0F9FB7B689B
:102A6C001B6801220421184600F0F2FB7B681B68EE
:102A7C00DA687B681B6842F00202DA607B681B68CC
:102A8C00DA687B681B6842F00402DA6000BF7B687E
:102A9C001B681A687B681B6842F001021A600023ED
:102AAC0018460837BD4680BD80B582B000AF78604F
:102ABC007B681B681B6903F00203022B22D17B6825
:102ACC001B68DB6803F00203022B1BD17B681B68BD
:102ADC006FF002021A617B6801221A777B681B680F
:102AEC009B6903F00303002B03D07868FEF722F8F0
:102AFC0005E0786800F0A6F9786800F0ACF97B681E
:102B0C0000221A777B681B681B6903F00403042BF3
:102B1C0022D17B681B68DB6803F00403042B1BD1F8
:102B2C007B681B686FF004021A617B6802221A77BB
:102B3C007B681B689B6903F44073002B03D0786897
:102B4C00FDF7F8FF05E0786800F07CF9786800F094
:102B5C0082F97B6800221A777B681B681B6903F07B
:102B6C000803082B22D17B681B68DB6803F0080381
:102B7C00082B1BD17B681B686FF008021A617B68FD
:102B8C0004221A777B681B68DB6903F00303002BB4
:102B9C0003D07868FDF7CEFF05E0786800F052F9B5
:102BAC00786800F058F97B6800221A777B681B68FC
:102BBC001B6903F01003102B22D17B681B68DB68A8
:102BCC0003F01003102B1BD17B681B686FF01002F5
:102BDC001A617B6808221A777B681B68DB6903F42F
:102BEC004073002B03D07868FDF7A4FF05E07868EC
:102BFC0000F028F9786800F02EF97B6800221A772B
:102C0C007B681B681B6903F00103012B0ED17B68E9
:102C1C001B68DB6803F00103012B07D17B681B6881
:102C2C006FF001021A617868FDF75CFF7B681B6826
:102C3C001B6903F08003802B0ED17B681B68DB685B
:102C4C0003F08003802B07D17B681B686FF0800238
:102C5C001A61786800F029FB7B681B681B6903F01C
:102C6C004003402B0ED17B681B68DB6803F04003EC
:102C7C00402B07D17B681B686FF040021A617868A3
:102C8C0000F0F2F87B681B681B6903F02003202B13
:102C9C000ED17B681B68DB6803F02003202B07D167
:102CAC007B681B686FF020021A61786800F0F4FAF8
:102CBC0000BF0837BD4680BD80B584B000AFF8605A
:102CCC00B9607A60FB6893F83C30012B01D1022388
:102CDC00B4E0FB68012283F83C20FB68022283F8F5
:102CEC003D207B680C2B00F29F8001A252F823F050
:102CFC00312D0008352E0008352E0008352E000821
:102D0C00712D0008352E0008352E0008352E0008D0
:102D1C00B32D0008352E0008352E0008352E00087E
:102D2C00F32D0008FB681B68B968184600F008F919
:102D3C00FB681B689A69FB681B6842F008029A6181
:102D4C00FB681B689A69FB681B6822F004029A6195
:102D5C00FB681B689969BB681A69FB681B680A43A6
:102D6C009A6162E0FB681B68B968184600F04EF97E
:102D7C00FB681B689A69FB681B6842F400629A61E5
:102D8C00FB681B689A69FB681B6822F480629A6175
:102D9C00FB681B689969BB681B691A02FB681B6896
:102DAC000A439A6141E0FB681B68B968184600F059
:102DBC0097F9FB681B68DA69FB681B6842F008022C
:102DCC00DA61FB681B68DA69FB681B6822F0040295
:102DDC00DA61FB681B68D969BB681A69FB681B68F8
:102DEC000A43DA6121E0FB681B68B968184600F0F9
:102DFC00E1F9FB681B68DA69FB681B6842F4006246
:102E0C00DA61FB681B68DA69FB681B6822F4806274
:102E1C00DA61FB681B68D969BB681B691A02FB681D
:102E2C001B680A43DA6100E000BFFB68012283F8EB
:102E3C003D20FB68002283F83C2000231846103705
:102E4C00BD4680BD80B483B000AF786000BF0C3746
:102E5C00BD4680BC704780B483B000AF786000BFC3
:102E6C000C37BD4680BC704780B483B000AF78602F
:102E7C0000BF0C37BD4680BC7047000080B485B0E5
:102E8C0000AF786039607B681B68FB607B68294AFF
:102E9C0093420BD07B68B3F1804F07D07B68264AF6
:102EAC00934203D07B68254A934208D1FB6823F0F8
:102EBC007003FB603B685B68FA681343FB607B68DC
:102ECC001C4A93420BD07B68B3F1804F07D07B68D0
:102EDC00194A934203D07B68184A934208D1FB6885
:102EEC0023F44073FB603B68DB68FA681343FB60B8
:102EFC00FB6823F080023B685B691343FB607B68D3
:102F0C00FA681A603B689A687B68DA623B681A68F0
:102F1C007B689A627B68074A934203D13B681A69C3
:102F2C007B681A637B6801225A6100BF1437BD4667
:102F3C0080BC7047002C0140000400400008004099
:102F4C0080B487B000AF786039607B681B6A23F06F
:102F5C0001027B681A627B681B6A7B617B685B6819
:102F6C003B617B689B69FB60FB6823F07003FB6033
:102F7C00FB6823F00303FB603B681B68FA68134390
:102F8C00FB607B6923F002037B613B689B687A6979
:102F9C0013437B617B681C4A93420CD17B6923F001
:102FAC0008037B613B68DB687A6913437B617B694F
:102FBC0023F004037B617B68134A934211D13B6974
:102FCC0023F480733B613B6923F400733B613B68E2
:102FDC005B693A6913433B613B689B693A691343EC
:102FEC003B617B683A695A607B68FA689A613B6816
:102FFC005A687B685A637B687A691A6200BF1C370F
:10300C00BD4680BC704700BF002C014080B487B027
:10301C0000AF786039607B681B6A23F010027B6814
:10302C001A627B681B6A7B617B685B683B617B68AF
:10303C009B69FB60FB6823F4E043FB60FB6823F4B3
:10304C004073FB603B681B681B02FA681343FB6010
:10305C007B6923F020037B613B689B681B017A69C9
:10306C0013437B617B681D4A93420DD17B6923F02E
:10307C0080037B613B68DB681B017A6913437B61CE
:10308C007B6923F040037B617B68144A934213D124
:10309C003B6923F480633B613B6923F400633B6130
:1030AC003B685B699B003A6913433B613B689B69D6
:1030BC009B003A6913433B617B683A695A607B68B1
:1030CC00FA689A613B685A687B689A637B687A698C
:1030DC001A6200BF1C37BD4680BC7047002C0140F3
:1030EC0080B487B000AF786039607B681B6A23F4CA
:1030FC0080727B681A627B681B6A7B617B685B6889
:10310C003B617B68DB69FB60FB6823F07003FB6051
:10311C00FB6823F00303FB603B681B68FA681343EE
:10312C00FB607B6923F400737B613B689B681B022B
:10313C007A6913437B617B681D4A93420DD17B698D
:10314C0023F400637B613B68DB681B027A691343E1
:10315C007B617B6923F480637B617B68144A9342B7
:10316C0013D13B6923F480533B613B6923F4005337
:10317C003B613B685B691B013A6913433B613B68EC
:10318C009B691B013A6913433B617B683A695A603E
:10319C007B68FA68DA613B685A687B68DA637B683B
:1031AC007A691A6200BF1C37BD4680BC704700BFED
:1031BC00002C014080B487B000AF786039607B6828
:1031CC001B6A23F480527B681A627B681B6A3B6122
:1031DC007B685B687B617B68DB69FB60FB6823F465
:1031EC00E043FB60FB6823F44073FB603B681B68A7
:1031FC001B02FA681343FB603B6923F400533B61E9
:10320C003B689B681B033A6913433B617B680F4A1D
:10321C00934209D17B6923F480437B613B685B69F2
:10322C009B017A6913437B617B687A695A607B687E
:10323C00FA68DA613B685A687B681A647B683A6999
:10324C001A6200BF1C37BD4680BC7047002C014081
:10325C0080B487B000AFF860B9607A60BB6803F0E7
:10326C001F03012202FA03F37B61FB681A6A7B6974
:10327C00DB431A40FB681A62FB681A6ABB6803F0EE
:10328C001F03796801FA03F31A43FB681A6200BF43
:10329C001C37BD4680BC704780B483B000AF7860EB
:1032AC0000BF0C37BD4680BC704780B483B000AF04
:1032BC00786000BF0C37BD4680BC704780B582B0CB
:1032CC0000AF78607B68002B01D101233FE07B6865
:1032DC0093F83930DBB2002B06D17B68002283F8DF
:1032EC0038207868FDF788FC7B68242283F8392025
:1032FC007B681B68DA687B681B6822F40052DA6012
:10330C00786800F09BFA7B681B681A697B681B68FD
:10331C0022F490421A617B681B685A697B681B68AF
:10332C0022F02A025A617B681B68DA687B681B688A
:10333C0042F40052DA607B680022DA637B68202258
:10334C0083F839207B68202283F83A200023184622
:10335C000837BD4680BD80B485B000AFF860B96059
:10336C001346FB80FB6893F83930DBB2202B30D14D
:10337C00BB68002B02D0FB88002B01D1012329E074
:10338C00FB6893F83830012B01D1022322E0FB6853
:10339C00012283F83820FB68BA681A62FB68FA8845
:1033AC009A84FB68FA88DA84FB680022DA63FB688B
:1033BC00212283F83920FB68002283F83820FB682F
:1033CC001B68DA68FB681B6842F08002DA60002335
:1033DC0000E0022318461437BD4680BC704700003D
:1033EC0080B588B000AF78607B681B681B68FB6198
:1033FC007B681B68DB68BB617B681B685B697B61F6
:10340C0000233B610023FB60FB6903F00F033B616E
:10341C003B69002B0DD1FB6903F02003002B08D076
:10342C00BB6903F02003002B03D0786800F084F90B
:10343C00CCE03B69002B00F0AB807B6903F001030F
:10344C00002B05D1BB6903F49073002B00F0A08016
:10345C00FB6903F00103002B0AD0BB6903F48073F2
:10346C00002B05D07B68DB6B43F001027B68DA63D1
:10347C00FB6903F00403002B0AD07B6903F0010302
:10348C00002B05D07B68DB6B43F002027B68DA63B0
:10349C00FB6903F00203002B0AD07B6903F00103E4
:1034AC00002B05D07B68DB6B43F004027B68DA638E
:1034BC00FB6903F00803002B0AD07B6903F00103BE
:1034CC00002B05D07B68DB6B43F008027B68DA636A
:1034DC007B68DB6B002B78D0FB6903F02003002B9F
:1034EC0007D0BB6903F02003002B02D0786800F0F2
:1034FC0023F97B681B685B6903F04003002B14BF46
:10350C0001230023DBB2FB607B68DB6B03F0080359
:10351C00002B02D1FB68002B31D0786800F06EF8DC
:10352C007B681B685B6903F04003002B23D07B682E
:10353C001B685A697B681B6822F040025A617B68E1
:10354C005B6B002B13D07B685B6B224A5A637B68E6
:10355C005B6B1846FDF7BAFE0346002B16D07B6852
:10356C005B6B5B6B7A68526B104698470EE0786821
:10357C0000F03BF80AE0786800F037F806E078686D
:10358C0000F033F87B680022DA631EE000BF1CE019
:10359C00FB6903F08003002B08D0BB6903F08003A8
:1035AC00002B03D0786800F05AF80FE0FB6903F0A9
:1035BC004003002B0AD0BB6903F04003002B05D05D
:1035CC00786800F0A1F800BF00E000BF2037BD46CE
:1035DC0080BD00BF4336000880B483B000AF786074
:1035EC0000BF0C37BD4680BC704780B483B000AFC1
:1035FC00786000BF0C37BD4680BC704780B483B088
:10360C0000AF78607B681B68DA687B681B6822F403
:10361C009072DA607B681B685A697B681B6822F0C1
:10362C0001025A617B68202283F83A2000BF0C37D4
:10363C00BD4680BC704780B584B000AF78607B68B5
:10364C005B6AFB60FB680022DA85FB680022DA8487
:10365C00F868FFF7CAFF00BF1037BD4680BD80B4C5
:10366C0085B000AF78607B6893F83930DBB2212BE2
:10367C0044D17B689B68B3F5805F1AD17B681B6A69
:10368C00FB60FB681B881A467B681B68C2F3080248
:10369C005A607B681B69002B05D17B681B6A9A1CDE
:1036AC007B681A620EE07B681B6A5A1C7B681A6284
:1036BC0008E07B681B6A591C7A6811621A787B686F
:1036CC001B685A607B68DB8C9BB2013B9BB27A68AF
:1036DC001946D184002B0FD17B681B68DA687B6894
:1036EC001B6822F08002DA607B681B68DA687B68F2
:1036FC001B6842F04002DA60002300E00223184607
:10370C001437BD4680BC704780B582B000AF78607E
:10371C007B681B68DA687B681B6822F04002DA6001
:10372C007B68202283F839207868FDF7EFF90023B5
:10373C0018460837BD4680BD80B584B000AF7860B0
:10374C007B6893F83A30DBB2222B71D17B689B6893
:10375C00B3F5805F23D17B689B6AFB607B681B6938
:10376C00002B0ED17B681B685B689BB2C3F308030C
:10377C009AB2FB681A807B689B6A9A1C7B689A6277
:10378C0029E07B681B685B689BB2DBB29AB2FB6872
:10379C001A807B689B6A5A1C7B689A621BE07B6868
:1037AC001B69002B0AD17B681B6858687B689B6A75
:1037BC00591C7A689162C2B21A700CE07B681B6863
:1037CC005B68DAB27B689B6A581C7968886202F085
:1037DC007F02D2B21A707B68DB8D9BB2013B9BB22D
:1037EC007A681946D185002B20D17B681B68DA6872
:1037FC007B681B6822F02002DA607B681B68DA6841
:10380C007B681B6822F48072DA607B681B685A69DB
:10381C007B681B6822F001025A617B68202283F8C6
:10382C003A207868FFF7D8FE002302E0002300E07E
:10383C00022318461037BD4680BD000080B584B009
:10384C0000AF78607B681B681B6923F440517B6870
:10385C00DA687B681B680A431A617B689A687B6824
:10386C001B691A437B685B691343FB607B681B68AD
:10387C00DB6823F4B05323F00C037A681268F96800
:10388C000B43D3607B681B685B6923F440717B68D6
:10389C009A697B681B680A435A617B681B68524AA9
:1038AC0093424ED1FEF712FFB860BA6813469B00E4
:1038BC0013449A001A447B685B689B00B2FBF3F3D9
:1038CC004A4AA2FB03235B091901BA6813469B0001
:1038DC0013449A001A447B685B689B00B2FBF3F2BA
:1038EC00424BA3FB02035B09642000FB03F3D31AD6
:1038FC001B0132333D4AA2FB03235B0903F0F003A7
:10390C001944BA6813469B0013449A001A447B6806
:10391C005B689B00B2FBF3F2344BA3FB02035B0925
:10392C00642000FB03F3D31A1B0132332F4AA2FB92
:10393C0003235B0903F00F027B681B680A449A603F
:10394C004DE0FEF7AFFEB860BA6813469B00134417
:10395C009A001A447B685B689B00B2FBF3F3234A22
:10396C00A2FB03235B091901BA6813469B0013449D
:10397C009A001A447B685B689B00B2FBF3F21B4B0A
:10398C00A3FB02035B09642000FB03F3D31A1B01A6
:10399C003233164AA2FB03235B0903F0F0031944EC
:1039AC00BA6813469B0013449A001A447B685B6800
:1039BC009B00B2FBF3F20D4BA3FB02035B096420EB
:1039CC0000FB03F3D31A1B013233084AA2FB032377
:1039DC005B0903F00F027B681B680A449A6000BF06
:1039EC001037BD4680BD00BF003801401F85EB512C
:1039FC00014B1868704700BF6400002070B50026AA
:103A0C000C4D0D4C641BA410A64209D100F04AFCCD
:103A1C0000260A4D0A4C641BA410A64205D170BDA9
:103A2C0055F8043B98470136EEE755F8043B9847A8
:103A3C000136F2E7484300084843000848430008B1
:103A4C004C43000803460244934200D1704703F8EC
:103A5C00011BF9E70EB46FF0004100B59CB01DAB33
:103A6C0002900690079104910848094953F8042BD9
:103A7C000591006802A9019300F068F80022029BEE
:103A8C001A701CB05DF804EB03B0704764000020A2
:103A9C000802FFFF2DE9F0478E6882469E420C46D5
:103AAC009146984638D8B1F80CC01CF4906F31D0C0
:103ABC0062692568096902EB42026F1A02EBD27245
:103ACC00013355103B449D4238BF1D461CF4806F9A
:103ADC0030D0294600F040FB064650B90C234FF07D
:103AEC00FF30CAF80030A38943F04003A381BDE83E
:103AFC00F0873A46216900F0BBFAA38923F490635E
:103B0C0043F08003A38126613E44266046466561EE
:103B1C00ED1BA560464500D946463246494620680D
:103B2C0000F0B4FAA36800209B1BA36023681E441A
:103B3C002660DCE72A4600F069FB06460028E2D145
:103B4C002169504600F0BCFAC8E700002DE9F04F9F
:103B5C001E468B899DB01B0607460D4614460ED596
:103B6C000B6963B9402100F0F7FA2860286120B98D
:103B7C000C233B604FF0FF30C9E040236B61002306
:103B8C00099320238DF8293030234FF0010ADFF8F8
:103B9C0098918DF82A30039623461E4613F8012B74
:103BAC000AB1252AF9D1B6EB040B0BD05B462246A1
:103BBC0029463846FFF76EFF013000F0A380099BC1
:103BCC005B4409933378002B00F09C8000234FF06A
:103BDC00FF32CDE905230136049307938DF853305A
:103BEC001A933446052214F8011B4F4800F032FAA0
:103BFC00049BC0B9D90644BF20228DF853201A0764
:103C0C0044BF2B228DF8532032782A2A13D0344605
:103C1C0000200A26079A214611F8013B303B092B5C
:103C2C004BD970B914E0A0EB09000AFA00F0184364
:103C3C0004902646D5E7039A111D12680391002AB9
:103C4C0001DB079204E0524243F002030792049313
:103C5C0023782E2B0CD163782A2B33D1039B02347F
:103C6C001A1D1B680392002BB8BF4FF0FF3305934E
:103C7C002E4E03222178304600F0ECF938B1402367
:103C8C00801B03FA00F0049B01340343049314F8E3
:103C9C00011B062226488DF8281000F0DBF90028BD
:103CAC0038D0244B13BB039B073323F00703083393
:103CBC000393099B434409936EE706FB02320120F0
:103CCC000C46A8E700230A26194601340593204622
:103CDC0010F8012B303A092A03D9002BC8D00591D2
:103CEC00C6E706FB012101230446F0E703AB009372
:103CFC002A46114B04A93846AFF30080B0F1FF3FC0
:103D0C008046D6D1AB895B063FF534AF09981DB020
:103D1C00BDE8F08F03AB00932A46074B04A9384645
:103D2C0000F082F8EAE700BF144300081A430008C9
:103D3C001E43000800000000A13A00082DE9F047DE
:103D4C0091461F468A680B6906469342B8BF1346D4
:103D5C00C9F8003091F843200C46DDF8208012B1F0
:103D6C000133C9F800302368990642BFD9F80030F6
:103D7C000233C9F80030256815F0060507D104F1A7
:103D8C00190AE368D9F800209B1AAB4229DC94F895
:103D9C0043302268003318BF012392062ED404F15D
:103DAC00430239463046C047013021D02368E568CC
:103DBC0003F00603042B18BF0025D9F800204FF0A0
:103DCC00000908BFAD1AA368226908BF25EAE5758A
:103DDC009342C4BF9B1AED181A344D451AD10020DA
:103DEC0008E00123524639463046C047013003D122
:103DFC004FF0FF30BDE8F0870135C2E73020E11805
:103E0C0081F843005A1C94F845102244023382F87E
:103E1C004310C4E70123224639463046C0470130DF
:103E2C00E6D009F10109D8E72DE9F04306460C4626
:103E3C0001F14300097E85B06E29984617460C9B0C
:103E4C0000F0BB8024D8632939D00AD8002900F0AF
:103E5C00C480582900F0928004F1420584F8421085
:103E6C0035E0642901D06929F6D125681A6815F066
:103E7C00800F02F104012CD012681960002A03DAB9
:103E8C002D23524284F84330DFF8C0C10A233FE0AF
:103E9C00732900F0A68008D86F2921D07029DBD1B6
:103EAC00226842F02002226003E0752918D078299C
:103EBC00D2D17822DFF898C184F8452062E01A68E4
:103ECC0004F14205111D1960136884F84230012376
:103EDC0094E0126815F0400F196018BF12B2CDE7CC
:103EEC00D4F800C01A681CF0800F02F104051D60A4
:103EFC0001D0126803E01CF0400FFAD012886F2931
:103F0C000CBF08230A23DFF844C1002184F84310B6
:103F1C006568002DA8BF2168A560A4BF21F004012D
:103F2C0021600AB9002D46D00546B2FBF3F103FB24
:103F3C00112E1CF80EE0934205F801ED39D9082B2F
:103F4C000BD12368DA0708D5236962689A42DEBF71
:103F5C00302305F8013C05F1FF35401B2061CDF8FD
:103F6C0000803B4603AA21463046FFF7E7FE0130AE
:103F7C0049D14FF0FF3005B0BDE8F083DFF8CCC07D
:103F8C0084F845101D68216855F8042B1D600D063A
:103F9C000BD5CD0744BF41F0200121601AB923682D
:103FAC0023F0200323601023AFE74B0648BF92B2E7
:103FBC00EFE70A46B9E70546C1E71A68D4F800C02E
:103FCC00151D61691CF0800F1D60136801D019600C
:103FDC0003E01CF0400FFAD0198000230546236142
:103FEC00BDE71A68111D1960156800216268284622
:103FFC0000F030F808B1401B606063682361002357
:10400C0084F84330ABE723692A4639463046C0472B
:10401C000130AED023689B0713D4E068039B984211
:10402C00B8BF1846A7E701234A4639463046C04771
:10403C0001309ED00135E368039A9B1AAB42F2DC47
:10404C00EBE7002504F11909F5E700BF254300084B
:10405C003643000810B5C9B202449042034601D160
:10406C00002303E01C7801308C42F6D1184610BDB9
:10407C000A44914200F1FF3300D1704710B511F89A
:10408C00014B914203F8014FF9D110BD884210B594
:10409C0001EB020302D983421C4607D8421E994207
:1040AC0008D011F8014B02F8014FF8E783189A1A5F
:1040BC009A4200D110BD14F8011D03F8011DF7E759
:1040CC0038B50546002943D051F8043C0C1F002B91
:1040DC00B8BFE41800F0D0F81E4A1368104633B984
:1040EC00636014602846BDE8384000F0CBB8A342AA
:1040FC000BD921686218934201BF1A685B68521889
:10410C00226063600460EDE713465A680AB1A2426C
:10411C00FAD919685818A0420BD1206801445818D4
:10412C0082421960DED110685268014419605A60ED
:10413C00D8E702D90C232B60D4E7206821188A42D7
:10414C0001BF116852680918216062605C60C9E7A0
:10415C0038BD00BF64040020F8B5CD1C25F0030564
:10416C0008350C2D38BF0C25002D064601DBA94265
:10417C0003D90C2333600020F8BD00F07DF82149F1
:10418C000A6814469CB9204F3B6823B92146304637
:10419C0000F062F838602946304600F05DF8431CA8
:1041AC0023D10C233046336000F06CF8E3E723682E
:1041BC005B1B17D40B2B03D923601C44256004E034
:1041CC006368A2420CBF0B605360304600F05AF893
:1041DC0004F10B00231D20F00700C21ACCD01B1ACF
:1041EC00A350C9E722466468CCE7C41C24F003043E
:1041FC00A042E3D0211A304600F02EF80130DDD178
:10420C00CFE700BF6404002068040020F8B507461F
:10421C0014460E4621B91146BDE8F840FFF79CBF85
:10422C0022B9FFF74DFF25462846F8BD00F030F8BF
:10423C00A0420FD221463846FFF78EFF05460028D4
:10424C00F2D031462246FFF713FF31463846FFF7CE
:10425C0037FFE9E73546E7E738B50023054C054657
:10426C0008462360FCF718FE431C02D1236803B1F7
:10427C002B6038BDD0040020014800F011B800BFFD
:10428C00D8040020014800F00CB800BFD80400206E
:10429C0051F8043C181F002BBCBF0B58C0187047BA
:1042AC0070477047F8B500BFF8BC08BC9E46704715
:0C42BC00F8B500BFF8BC08BC9E46704777
:1042C80025632573000000002563256300000000B6
:1042D800256C750002030405060708090A0B0C0D76
:1042E8000E0F101001020000000000004000001036
:1042F800200000000000000000000000010203048C
:10430800060708090000000001020304232D302BD2
:104318002000686C4C0065666745464700303132BE
:104328003334353637383941424344454600303115
:104338003233343536373839616263646566000074
:0443480085010008E3
:04434C005D01000807
:10435000444D5835313200000000000000000000DC
:10436000000000000000000000000000000000004D
:10437000000000000000000000000000000000003D
:10438000000000000000000000000000000000002D
:10439000000000000000000000000000000000001D
:1043A000040E0E0E0E1F04000024F4001000000086
:1043B0000100000068000020000000000000000074
:1043C00000000000000000000000000000000000ED
:1043D00000000000000000000000000000000000DD
:1043E00000000000000000000000000000000000CD
:1043F00000000000000000000000000000000000BD
:1044000000000000000000000000000000000000AC
:084410000000000000000000A4
:04000005080001A945
:00000001FF
